:020000040800F2
:10000000B06A032469030008190B020821E80108FB
:10001000E70A0208457B0108CD4A020800000000FB
:10002000000000000000000000000000AD02000819
:10003000238201080000000001030008B73702080E
:100040008303000883030008830300088303000878
:100050008303000883030008830300088303000868
:100060008303000883030008830300088303000858
:1000700083030008518001088303000883030008FC
:100080008303000883030008830300088303000838
:100090008303000883030008830300088303000828
:1000A0008303000883030008830300088303000818
:1000B0008303000883030008830300088303000808
:1000C00083030008830300088303000883030008F8
:1000D00083030008830300088303000883030008E8
:1000E00083030008211202080000000083030008B7
:1000F00083030008830300088303000883030008C8
:1001000083030008F51D0208830300088303000829
:1001100083030008830300088303000883030008A7
:100120008303000883030008830300088303000897
:100130008303000883030008830300088303000887
:1001400000000000000000000000000000000000AF
:10015000830300088303000883030008FD450208A9
:100160008303000883030008830300088303000857
:1001700083030008830300088303000800000000D5
:100180008303000883030008830300088303000837
:100190008303000883030008830300088303000827
:1001A0004101020883030008830300088303000859
:1001B0008303000883030008830300088303000807
:1001C00083030008830300088303000883030008F7
:1001D00083030008830300088303000883030008E7
:1001E00083030008830300088303000883030008D7
:1001F00083030008830300088303000883030008C7
:1002000083030008830300088303000883030008B6
:1002100083030008830300088303000883030008A6
:100220008303000883030008830300080000000024
:100230008303000883030008000000008303000814
:100240008303000883030008830300088303000876
:100250008303000883030008830300088303000866
:100260008303000883030008830300088303000856
:1002700083030008830300088303000800000000D4
:100280008303000800000000830300080000000052
:100290000000000083030008DFF80CD000F02AFD06
:1002A00000480047C1A00208B06A03242B4B19681C
:1002B0000868B0E8F04F80F30988BFF36F8F4FF004
:1002C000000080F3118870470000000006480068B5
:1002D000006880F3088862B661B6BFF34F8FBFF342
:1002E0006F8F00DF00BF00BF08ED00E0DFF80C00FB
:1002F000016841F470010160704700BF88ED00E0C3
:10030000EFF30980BFF36F8F144B1A681EF0100FC4
:1003100008BF20ED108A20E9F04F106008B44FF0BC
:10032000500072B680F31188BFF34F8FBFF36F8F09
:1003300062B62BF03DFB4FF0000080F3118808BC43
:1003400019680868B0E8F04F1EF0100F08BFB0EC55
:10035000108A80F30988BFF36F8F704780030024F1
:10036000EFF30580704700000648804706480047C5
:10037000FEE7FEE7FEE7FEE7FEE7FEE7FEE7FEE755
:10038000FEE7FEE7853802089902000881FB00209D
:10039000704701464FF0000081EAE170A0EBE17088
:1003A000704700002DE9F04F82B001904FF00074CB
:1003B0004FF000784FF000054FF0000952F804CBE1
:1003C00052F804EB0868CB6DC0FB0C45D1F88000F7
:1003D000CEF1000EC3FB0E45D1F8DC30C0FB0C891A
:1003E000C3FB0E8952F804CB52F804EB48688B6DBE
:1003F000C0FB0C45D1F88400CEF1000EC3FB0E45C6
:10040000D1F8D830C0FB0C89C3FB0E8952F804CB5D
:1004100052F804EB88684B6DC0FB0C45D1F888009E
:10042000CEF1000EC3FB0E45D1F8D430C0FB0C89D1
:10043000C3FB0E8952F804CB52F804EBC8680B6D6D
:10044000C0FB0C45D1F88C00CEF1000EC3FB0E456D
:10045000D1F8D030C0FB0C89C3FB0E8952F804CB15
:1004600052F804EB0869CB6CC0FB0C45D1F8900046
:10047000CEF1000EC3FB0E45D1F8CC30C0FB0C8989
:10048000C3FB0E8952F804CB52F804EB48698B6C1D
:10049000C0FB0C45D1F89400CEF1000EC3FB0E4515
:1004A000D1F8C830C0FB0C89C3FB0E8952F804CBCD
:1004B00052F804EB88694B6CC0FB0C45D1F89800EE
:1004C000CEF1000EC3FB0E45D1F8C430C0FB0C8941
:1004D000C3FB0E8952F804CB52F804EBC8690B6CCD
:1004E000C0FB0C45D1F89C00CEF1000EC3FB0E45BD
:1004F000D1F8C030C0FB0C89C3FB0E8901984FF4C2
:10050000FE4E4EF0FF0E4FEA946444EA85144FEA23
:10051000E47CBCEBE43F18BF8CEA0E044FEA986819
:1005200048EA89184FEAE87CBCEBE83F18BF8CEA40
:100530000E080480A0F8028002F5707201F5805167
:100540004FF000744FF000784FF000054FF00009B5
:1005500052F804CB0868D1F88030C0FB0C45C3FBCF
:100560000C8952F804CB4868D1F88430C0FB0C45A4
:10057000C3FB0C8952F804CB8868D1F88830C0FBE3
:100580000C45C3FB0C8952F804CBC868D1F88C30F9
:10059000C0FB0C45C3FB0C8952F804CB0869D1F8A9
:1005A0009030C0FB0C45C3FB0C8952F804CB486962
:1005B000D1F89430C0FB0C45C3FB0C8952F804CB36
:1005C0008869D1F89830C0FB0C45C3FB0C8952F800
:1005D00004CBC869D1F89C30C0FB0C45C3FB0C8927
:1005E00001984FF4FE4E4EF0FF0E4FEA946444EA39
:1005F00085144FEAE47CBCEBE43F18BF8CEA0E04A0
:100600004FEA986848EA89184FEAE87CBCEBE83F73
:1006100018BF8CEA0E08A0F84040A0F84280A2F56E
:100620007872A1F570614FF00F0C00F10400CDF865
:1006300000C001904FF000744FF000784FF000764A
:100640004FF0007A4FF000054FF000094FF000071F
:100650004FF0000B52F804CB52F804EB0868CB6D56
:10066000C0FB0C45C0FB0E67CEF1000EC3FB0C6750
:10067000C3FB0E45D1F8DC30D1F88000C3FB0E89F6
:10068000C3FB0CABCEF1000EC0FB0C89C0FB0EAB64
:1006900052F804CB52F804EB48688B6DC0FB0C4554
:1006A000C0FB0E67CEF1000EC3FB0C67C3FB0E450B
:1006B000D1F8D830D1F88400C3FB0E89C3FB0CAB52
:1006C000CEF1000EC0FB0C89C0FB0EAB52F804CB80
:1006D00052F804EB88684B6DC0FB0C45C0FB0E67FD
:1006E000CEF1000EC3FB0C67C3FB0E45D1F8D4302E
:1006F000D1F88800C3FB0E89C3FB0CABCEF1000E12
:10070000C0FB0C89C0FB0EAB52F804CB52F804EBD3
:10071000C8680B6DC0FB0C45C0FB0E67CEF1000E28
:10072000C3FB0C67C3FB0E45D1F8D030D1F88C0069
:10073000C3FB0E89C3FB0CABCEF1000EC0FB0C89D2
:10074000C0FB0EAB52F804CB52F804EB0869CB6C3B
:10075000C0FB0C45C0FB0E67CEF1000EC3FB0C675F
:10076000C3FB0E45D1F8CC30D1F89000C3FB0E8905
:10077000C3FB0CABCEF1000EC0FB0C89C0FB0EAB73
:1007800052F804CB52F804EB48698B6CC0FB0C4563
:10079000C0FB0E67CEF1000EC3FB0C67C3FB0E451A
:1007A000D1F8C830D1F89400C3FB0E89C3FB0CAB61
:1007B000CEF1000EC0FB0C89C0FB0EAB52F804CB8F
:1007C00052F804EB88694B6CC0FB0C45C0FB0E670C
:1007D000CEF1000EC3FB0C67C3FB0E45D1F8C4304D
:1007E000D1F89800C3FB0E89C3FB0CABCEF1000E11
:1007F000C0FB0C89C0FB0EAB52F804CB52F804EBE3
:10080000C8690B6CC0FB0C45C0FB0E67CEF1000E37
:10081000C3FB0C67C3FB0E45D1F8C030D1F89C0078
:10082000C3FB0E89C3FB0CABCEF1000EC0FB0C89E1
:10083000C0FB0EAB01F5807101984FF4FE4E4EF0F7
:10084000FF0E4FEA946444EA85144FEAE47CBCEB63
:10085000E43F18BF8CEA0E044FEA986848EA89180A
:100860004FEAE87CBCEBE83F18BF8CEA0E084FEA81
:10087000966646EA87164FEAE67CBCEBE63F18BF71
:100880008CEA0E064FEA9A6A4AEA8B1A4FEAEA7C29
:10089000BCEBEA3F18BF8CEA0E0ADDF800C000EBA3
:1008A000CC0E2EF8026B2EF802AB20F8024B20F88B
:1008B000028BBCF1010C7FF4BAAE02B0BDE8F08F40
:1008C0002DE9F04F82B001904FF000744FF0000519
:1008D00052F804CB52F804EB0868CB6DCEF1000E51
:1008E000C0FB0C45C3FB0E4552F804CB52F804EB99
:1008F00048688B6DCEF1000EC0FB0C45C3FB0E4566
:1009000052F804CB52F804EB88684B6DCEF1000E20
:10091000C0FB0C45C3FB0E4552F804CB52F804EB68
:10092000C8680B6DCEF1000EC0FB0C45C3FB0E4535
:1009300052F804CB52F804EB0869CB6CCEF1000EF0
:10094000C0FB0C45C3FB0E4552F804CB52F804EB38
:1009500048698B6CCEF1000EC0FB0C45C3FB0E4505
:1009600052F804CB52F804EB88694B6CCEF1000EC0
:10097000C0FB0C45C3FB0E4552F804CB52F804EB08
:10098000C8690B6CCEF1000EC0FB0C45C3FB0E45D5
:1009900001984FF4FE4E4EF0FF0E4FEA946444EA85
:1009A00085144FEAE47CBCEBE43F18BF8CEA0E04EC
:1009B000048002F5707201F580514FF000744FF021
:1009C000000552F804CB0868C0FB0C4552F804CB74
:1009D0004868C0FB0C4552F804CB8868C0FB0C4546
:1009E00052F804CBC868C0FB0C4552F804CB086928
:1009F000C0FB0C4552F804CB4869C0FB0C4552F8CB
:100A000004CB8869C0FB0C4552F804CBC869C0FB15
:100A10000C4501984FF4FE4E4EF0FF0E4FEA9464E1
:100A200044EA85144FEAE47CBCEBE43F18BF8CEA4F
:100A30000E040484A2F57872A1F570614FF00F0CDA
:100A400000F10200CDF800C001904FF000744FF0AB
:100A500000764FF000054FF0000752F804CB52F833
:100A600004EB0868CB6DC0FB0C45C0FB0E67CEF1F4
:100A7000000EC3FB0E45C3FB0C6752F804CB52F8C3
:100A800004EB48688B6DC0FB0C45C0FB0E67CEF1D4
:100A9000000EC3FB0E45C3FB0C6752F804CB52F8A3
:100AA00004EB88684B6DC0FB0C45C0FB0E67CEF1B4
:100AB000000EC3FB0E45C3FB0C6752F804CB52F883
:100AC00004EBC8680B6DC0FB0C45C0FB0E67CEF194
:100AD000000EC3FB0E45C3FB0C6752F804CB52F863
:100AE00004EB0869CB6CC0FB0C45C0FB0E67CEF174
:100AF000000EC3FB0E45C3FB0C6752F804CB52F843
:100B000004EB48698B6CC0FB0C45C0FB0E67CEF153
:100B1000000EC3FB0E45C3FB0C6752F804CB52F822
:100B200004EB88694B6CC0FB0C45C0FB0E67CEF133
:100B3000000EC3FB0E45C3FB0C6752F804CB52F802
:100B400004EBC8690B6CC0FB0C45C0FB0E67CEF113
:100B5000000EC3FB0E45C3FB0C6701F580710198C5
:100B60004FF4FE4E4EF0FF0E4FEA946444EA8514B3
:100B70004FEAE47CBCEBE43F18BF8CEA0E044FEA7A
:100B8000966646EA87164FEAE67CBCEBE63F18BF5E
:100B90008CEA0E06DDF800C000EB8C0E2EF8026B1E
:100BA00020F8024BBCF1010C7FF44CAF02B0BDE861
:100BB000F08F2DE9F05F0546002092469B4688465F
:100BC0000646814640241BE02846414647462246C9
:100BD00000F07FF853465A46C01A914110D311468F
:100BE0001846224600F066F82D1A67EB01084F46BA
:100BF00022460120002100F05DF817EB00094E416C
:100C0000201EA4F10104DFDC484631462A46434653
:100C1000BDE8F09F10B5441A0346944209D28418E7
:100C2000114403E011F8013D04F8013D521EF9D2D0
:100C300010BD40EA0104A40703D009E010C9121F47
:100C400010C3042AFAD203E011F8014B03F8014B58
:100C5000521EF9D210BDD2B201E000F8012B491E9C
:100C6000FBD270470022F6E710B513460A46044649
:100C70001946FFF7F0FF204610BD421C10F8011B7B
:100C80000029FBD1801A704730B504460020034686
:100C900000E05B1C934203D2E05CCD5C401BF8D0CB
:100CA00030BD034611F8012B00F8012B002AF9D1C1
:100CB00018467047202A04DB203A00FA02F100208F
:100CC00070479140C2F1200320FA03F3194390408A
:100CD0007047202A04DB203A21FA02F000217047F5
:100CE00021FA02F3D040C2F1200291400843194694
:100CF00070470000064C074D06E0E06840F0010335
:100D000094E8070098471034AC42F6D3FFF7C8FACE
:100D100020BD080840BD080870B58D1810F8014BBB
:100D200014F0030201D110F8012B231106D110F8A1
:100D3000013B03E010F8016B01F8016B521EF9D181
:100D4000ABB110F8012B04F00C048A1A0C2C03D060
:100D5000A2EB84129B1C08E010F8014BA2EB0422CA
:100D6000F8E712F8014B01F8014B5B1EF9D5A942D7
:100D7000D4D3002070BD000070B5456882B0044631
:100D8000014628460AF04CFE68B123680F2B59D063
:100D90000BDD282B45D0B3F5107F3CD0112B49D06B
:100DA00020460BF065F902B070BD0B2B20D00E2B46
:100DB000F6D1E3681A6859680D2A53D0202A31D138
:100DC000002928464FF480717DDD0AF019FF28467E
:100DD00002F0A2FA02AB846A43F8040D184602F04E
:100DE000FFFBA207DFD5284601210CF055FDDAE70D
:100DF000284602AD02F090FA03466830019302F0F3
:100E000069F855F8040D03216C3002F089F8284682
:100E100002F0E6FBC4E7324B214628461B689847A0
:100E2000C1E7E368002BBBD128464FF480710AF07C
:100E3000DBFDB5E72B4B1B68002BB4D021462846C1
:100E40009847B0E7284602F067FA034602A840F840
:100E5000043D5B6E1C6802F0C3FB002CA3D0284647
:100E6000A047A0E70029DDDD4FF4807128460AF095
:100E7000C7FE02AC284602F04FFA866A44F8040D19
:100E8000204602F0ADFBB10703D5012128460CF046
:100E900003FD4FF4807128460AF0A6FD284602F0B3
:100EA0003BFA034620461E8E9C6A019302F098FB93
:100EB000304606F0F9F8A3077FF575AF2846022102
:100EC0000CF0EAFC6FE70AF08FFD284602F024FAE6
:100ED000034602A89C6A1E8E40F8043DE6E700BF68
:100EE000540A0024E81703242DE9F04F87B0804608
:100EF00089469246129E9B46109F4C251A4C03F041
:100F00002BFF01965B4600975246494640460395A3
:100F100002940AF0B1FF064600B302F0FDF9102278
:100F20001199124F05900AF0BBFE0DF1180E3D1DF0
:100F30005EF804CD0FCD0CF134040FC40FCD0FC4F7
:100F400095E80F0084E80F007B6B7046CCF86430A6
:100F500002F046FB7B6B30465B68984706F0C0FBAF
:100F6000304607B0BDE8F08F790D0008540A002420
:100F70002DE9F04FB0F90A6087B0B0F90C708B46DC
:100F800085691644B0F90E801F44B0F910A00446DC
:100F9000B0F908904C3503F0DFFEDFF8CCC04FF01D
:100FA000000E4246CDF800B0394630460395534610
:100FB000CDF808C0CDF804E00AF05EFF804628B9FD
:100FC00006F08EFB404607B0BDE8F08F02F0A4F9B2
:100FD000244F49460DF11809102205903E1D0AF0D4
:100FE0005FFE59F804ED0FCE0EF134050FC50FCE9C
:100FF0000FC596E80F0085E80F007B6B4846CEF8DA
:10100000643002F0EDFA7B6B40465B68984706F06F
:1010100067FB656803F0A0FE404602F07DF90346D9
:1010200004A89C6E0493059402F0DAFA2946484617
:1010300008F040F90028C3D0059B9C4209D04046E7
:1010400002F06AF9059A034604A89A66049302F02E
:10105000C7FA40460CF04AF806F042FB404607B09B
:10106000BDE8F08F540A0024790D0008974A816882
:1010700043682DE9F041044688B052F82160122BF4
:1010800040D8DFE803F0B03F3F3F3F0A973F3F3F84
:101090003F3F3F3F3F3F3F3F4300F569002D40F05A
:1010A000B580371F57F8040F05F052FF04F1140103
:1010B00020690EC928445B1B521B2944013503F0EB
:1010C00027FB022DEED162693169E3690191911C20
:1010D000F76813442069A2695B1028440097521BEB
:1010E00003F0E6F9E1696269B0698B1E1144A269F7
:1010F0000190491020697669521B013128440096FD
:1011000003F0D6F9002008B0BDE8F081006802F0D5
:1011100003F9876E0490002F00F0D080A368B0F927
:101120005C80002B00F0C880032B14BF0023022337
:1011300000EB8303406D08AC1D6C05F033FF2846BF
:1011400005F006FF06A803F08BFCB28BBDF8181063
:1011500006A8BDF81C301144BDF81A509A1ABDF803
:101160001E30ADF81810023554F8101D023BADF8D2
:101170001C20B1F96020B1F95E10ADF81E30ADF859
:101180001A5005F0A1F9204608AC02F029FA022015
:1011900005F072FF384602F0BFF806A9424644F84F
:1011A0000C0D02F0D5FF204602F01AFA002008B01C
:1011B000BDE8F081006802F0AFF8049020680DF0FF
:1011C00059FEB8B9049B5D6F05B9DD6E04A802F045
:1011D00007FA0023284621681A4602F0AFFE0020D5
:1011E00008B0BDE8F08100680CF046FE002008B0B1
:1011F000BDE8F081A368002B64D1049A136F002B23
:1012000014BF6C23682313445D68DFE7B268B046FF
:10121000C3690027039271688269029158F8040932
:10122000009561690190206907F060FB58F8040F90
:1012300005F08EFEF369A26921696069D21A19442A
:10124000384403F00FFAF369A2692169E069D21A00
:101250001944C01B03F006FAF369E2696169206969
:10126000D21A1944384403F09BFAA069F369E26981
:10127000C01B61690137D21A194403F091FA022F99
:10128000D4D1B06805F064FEF16922696569901CEB
:10129000E3690A445B1A2944013A03F0F5FAF1695B
:1012A000A0696569E369821E401A5B1A294401300E
:1012B00003F0EAFAF56906E7012339E704A802F02A
:1012C0008FF91FE7049BDD6E80E700BF74B3080849
:1012D00010B5044682B078B103F03EFD204602F01E
:1012E0001BF802AB448E43F8040D1846C4F30024E7
:1012F00002F076F906F0F4F9204602B010BD00BF06
:1013000000B9704730B5044683B00D4603F024FDA4
:10131000204602F001F802AB456543F8040D18467B
:1013200002F05EF920460BF0E1FE06F0D9F903B0B9
:1013300030BD00BF38B51346002204460D4618469E
:10134000114602F0D9FD294602462046BDE8384044
:1013500000F034B870B582B018B90125284602B043
:1013600070BD04460D4603F0F7FC204601F0D4FFA3
:101370000346866E68468DE8480002F031F929463A
:1013800001A807F097FF00280CBF012500250FD00A
:10139000019B9E4209D0204601F0BEFF019A034600
:1013A00068469A66009302F01BF920460BF09EFEF9
:1013B00006F096F9284602B070BD00BF00B970472C
:1013C00070B5054682B00C46164603F0C5FC2846AB
:1013D00001F0A2FF022C019006D901A802F000F949
:1013E00006F07EF902B070BD1A34A4002044043027
:1013F00001F070FD019B28461C4466600BF076FEF0
:10140000EBE700BF2DE9F04304468BB018B9204646
:101410000BB0BDE8F08316460D461F4600F0AEFC4B
:101420008046204600F08EFC814603F095FC05A91D
:10143000204600F0C1FDEA0719D4AB07BDF9200032
:101440004CBF40F2022302233044424602934946F5
:1014500043468DE89000FFF747FD044600210AF05F
:10146000EDFB06F03DF920460BB0BDE8F083BDF979
:10147000242008F1FF308223101A801BE5E700BF0B
:1014800010B50523FFF7BEFF0446054A0021FFF70C
:1014900051FF204603490CF06DFB204610BD00BFF4
:1014A000D9020108B56F01082DE9F047466886B0FA
:1014B0000546304601F030FFC36D0090D0F88840FB
:1014C000D0F88070D0F86880B0F87C90002B64D0A1
:1014D000D3F800A0684602F083F814B909E0246844
:1014E0003CB16368284698470028F8D006B0BDE8AC
:1014F000F0872B68172B00F0A5801DDC0F2B00F068
:101500008D807DDC0B2B00F0BF800D2B0AD119F0F4
:10151000080F07D1EB68DB6823B11B7A13B13046A3
:101520000CF0BEFB304629460AF07AFA0028DDD0DE
:1015300028460AF09DFDD9E7262B75D02FDC1E2BFF
:1015400000F0AE80202BEDD1EC68002CEAD03146C3
:1015500060680DF075FC002800F0C080304601F096
:10156000DBFEB0F87C3002460190180740F12D8177
:1015700001A802F035F8314660680DF04FFC0028F4
:10158000D0D0304601F0C8FE6268034601A801933E
:10159000C3F8802002F024F8C4E79A469AE72A2B81
:1015A00065D0B3F5107FBDD106AC3046D5F80C80C0
:1015B00001F0B2FEB0F87C7044F8140D204602F041
:1015C0000FF8EB68002B91D098F80830002B00F052
:1015D000AB80380740F1B78030460AF0C5FB07F40E
:1015E0008873B3F5887F81D107F080039BB2002B0D
:1015F0007FF47CAF4146304605220CF0FFFA75E7D8
:10160000112B22D0142B8DD1304601A900F0D4FC2F
:1016100002ABEA6803CB1060516067E7BAF1000FD4
:1016200080D03046D0477DE7EB68022B7FF45EAF79
:10163000272206A9A86841F8142D039604930DF0FB
:101640007BFD53E7C5F80C8050E7EC68304601F0AD
:1016500063FE01902389012B05D1B0F87C3043F45F
:101660008073A0F87C3001A801F0BAFF5AE7304639
:1016700001F052FEEB680090002B68D0C0F8843077
:10168000684601F0ADFF31E7304601F045FE034604
:101690007030009301F01EFC684601F0A1FF41E7A5
:1016A000EC68012C57D0002E3FF420AF03F054FB20
:1016B000304601F031FEB0F87C30024601901C0744
:1016C00006D523F008033046A2F87C300BF00EFD5F
:1016D00001A801F085FF06F003F807E7304601F0A6
:1016E0001BFEB0F87C3002460190190706D523F0A6
:1016F00008033046A2F87C300BF0F8FC01A801F09A
:101700006FFF314620680DF089FB00283FF40AAFD7
:10171000304601F001FE2268034601A80193C3F898
:10172000802001F05DFFFDE6304601F0F5FD034647
:101730002046B3F87C20019322F48072A3F87C2029
:1017400001F04EFFD2E630460CF0AAFA44E7D0F89A
:101750008430EB6094E738460BF0E8FF20B338465E
:101760000CF09EFA38460BF097FBB0B926B9002F63
:101770007FF4BCAEEF60B9E603F0EEFA304601F05C
:10178000CBFDB0F87C3002460190190725D501A8A1
:1017900001F026FF05F0A4FFE9E7214638460AF0EC
:1017A0002FFA002EE3D0E7E740460CF0E5FA0746B3
:1017B000304601F0B1FD03466846C3F880700093DF
:1017C00001F00EFF002ED2D0D6E743F008033046DA
:1017D000A2F87C300BF08AFCCAE643F008033046DE
:1017E000A2F87C300BF082FCD1E700BF2DE9F04F6E
:1017F0000F46B0F90C108FB0B0F90A6001EB030B83
:10180000B0F9083085691644049343686035B0F92F
:101810000E80B0F91090B0F812A0059303F09CFA76
:101820004B4C4FF4805E03955946009730464B462B
:1018300042460294CDF804E00AF01EFB054628B9A2
:1018400005F04EFF28460FB0BDE8F08FDFF8089195
:101850000EAE01F061FD0499302206900AF020FAE4
:1018600056F8207DCE464FF0000807F13404BEE85C
:101870000F000FC4BEE80F000FC49EE80300189BC2
:1018800084E803007B663046D9F8283041F2827440
:10189000A7F87CA0FB65C7F88080C7F86C80C7F804
:1018A000888001F09DFE09A928462A4F00F084FB9C
:1018B000BDF92AE0BDF92810BDF92C20BDF92E3064
:1018C0000846521A0194CEEB030371460132CDF85B
:1018D0000C800133009502970AF0CEFAD9F828302F
:1018E000044628465B689847284601F015FD0346E4
:1018F00030469C66069301F073FE28460AF02AFDE6
:1019000003F02AFA284601F007FD034607A81A6FDC
:101910000793089201F064FE059908A807F0CAFC35
:1019200038B905F0DDFE05F0DBFE28460FB0BDE856
:10193000F08F284601F0F0FC089A034607A81A67C2
:10194000079301F04DFE28460BF0D0FBE9E700BFFE
:10195000A9140008512300088C0A00242DE9F04145
:10196000044690B0006800F0D5F9B04B6668A3F16A
:101970002C05002808BF1D461C2E00F2F780DFE86A
:1019800016F02200F500F500F500F5003500F50031
:10199000F500F500F500F5005100F500F500FA003E
:1019A000F500F500F5000E01F500F50048014A01CB
:1019B0004C014E01F500F500F5001D006E69304642
:1019C00010B0BDE8F081206801F0A6FC034610A825
:1019D000B3F85A2040F82C3D42F00C02A3F85A20EC
:1019E00001F0FEFD20680CF047FAE8E72A690026BE
:1019F000B4F910300192B4F914701846EA68B4F9D9
:101A000018503946B4F91C40ADF81C3000922346FA
:101A10002A46ADF81E70ADF82050ADF8224002F015
:101A200047FDCCE723681C2218460892079301F073
:101A300073FC034607A805931B6D9847064605A847
:101A400001F0CEFD012E40F32781A968334662697B
:101A500002916868A16901902F682069009706F0DB
:101A600041FE2769A3693744C6EB0308286805F0DF
:101A70006FFA42463946606902F0F4FD686805F085
:101A800067FA606942463946013002F0EBFD6B6A45
:101A9000022B00F3F4802A6A964217DA6769012E56
:101AA000206907F1020840F32A8102443744304498
:101AB0004146013A3B4602F0E7FEA069821B3B46E5
:101AC000EF694146C01B013002F0DEFE012E40F3FB
:101AD000138163691E44E7692868013F05F038FAFD
:101AE000314620693A4602F05BFE3A463146A0692B
:101AF00002F056FEE769686805F02AFA023F20699D
:101B000031463A46013002F04BFEA0693A46314672
:101B1000013802F045FEEB69022B40F38280AB6A8C
:101B2000E769022BA868CCBFFF1A023F05F010FA44
:101B3000EA69022A00F39A802B6A022B00F38C8058
:101B4000286805F005FAA2692169E06902F08AFDBA
:101B5000686805F0FDF9A2692169E069013A01317F
:101B6000013802F07FFDAF6A022F61DC00263046AB
:101B700010B0BDE8F08104F114012769A8680026BF
:101B8000ADF81C700EC9ADF81E10ADF82020ADF8F0
:101B9000223005F0DDF907A802F0A2FE0FE7298B3D
:101BA0002269A3690A4465695B1AE1692068ADF896
:101BB0002030ADF81C20ADF81E50ADF8221001F019
:101BC000ABFB036F0590FBB1022005F055FA059AB7
:101BD000B2F87C30C3F3C0030E3302EB8303986882
:101BE00005F0B6F9059B586B05F0DCF9059B186FFD
:101BF00001F092FB059B07A90690B3F95A2002F069
:101C0000A7FA06A801F0ECFC05A8002601F0E8FC04
:101C1000D5E6AE6AD3E6EE69D1E62E6ACFE66E6A05
:101C2000CDE62B6A022B8BDD79E700BF1C0C00246C
:101C3000D4F81C800026A2692169A868951E8C1C16
:101C400005F086F9C7EB08012A462046A8F10203F1
:101C5000013102F019FEB2E6A0693B46EF69314658
:101C6000821EC01B013002F00FFE69E720693B466F
:101C7000314602440230013A02F006FE5CE7A868F1
:101C800005F066F9636938466F6A991C42463B4421
:101C9000013B02F0F9FD19E7286805F059F92269BE
:101CA000EB69114660691A44013A02F0DBFCA36952
:101CB000E9691A466069591A013102F0D3FC676973
:101CC00020690137394602F0F9FC3946A06902F073
:101CD000F5FC686805F03CF920693946013002F0EE
:101CE000EDFCA0693946013802F0E8FC2769A369D8
:101CF0000237A3F10208B9E666690236EBE6024450
:101D0000434602304146013A474602F0BDFDA06914
:101D1000821ED4E610B5044682B080B103F01CF8F0
:101D2000204601F0F9FA02ABB0F87C4043F8040D0C
:101D30001846C4F3C00401F053FC05F0D1FC204662
:101D400002B010BD30B5044683B0A0B103F004F872
:101D5000204601F0E1FA02ADC26D034600212046A3
:101D600045F8043D93681B6898470446284601F0EF
:101D700037FC05F0B5FC204603B030BD10B5044675
:101D800086B010B9204606B010BD02F0E5FF20462F
:101D900001A900F011F9204601F0BEFA06ABB0F936
:101DA000544043F8180D184601F01AFC0CB9BDF95F
:101DB000044005F095FC204606B010BD00B9704700
:101DC00070B5044682B00D46164602F0C5FF2046A7
:101DD00001F0A2FA012D019006D901A801F000FC42
:101DE00005F07EFC02B070BD00EB850120468E63DD
:101DF0000BF07CF9F1E700BF2DE9F041044684B017
:101E00000E4602F0A9FF24B905F06AFC04B0BDE853
:101E1000F081204601F080FA458EC36D05F0200563
:101E200003909F68ADB245B1B0F954502DB9406BE5
:101E300002F0A6FE039B851C00E003465E6303A838
:101E400001F0CEFB3B680121204698473B680646DF
:101E50000321204698473B6880460021204698474A
:101E60000746204600F036FA4346324629462046C9
:101E7000009700F0B1F920460BF038F905F030FC7E
:101E800004B0BDE8F08100BF00B9704730B504462A
:101E900083B00D4602F060FF204601F03DFA034694
:101EA000026F68460093019201F09AFB294601A84F
:101EB00007F000FA18B905F013FC03B030BD204656
:101EC00001F02AFA019A034668461A67009301F066
:101ED00087FB20460BF00AF905F002FC03B030BD89
:101EE00000B9704730B5044683B00D4602F034FFA8
:101EF000204601F011FAB0F95A300190AB4204D0FB
:101F0000A0F85A5020460BF0F1F801A801F068FB48
:101F100005F0E6FB03B030BD2DE9F04385B020B9F4
:101F20000546284605B0BDE8F08304460E4602F09B
:101F300013FF204601F0F0F9B0F954500390B54278
:101F40002AD0418E01F0200189B219B16DB3034648
:101F50002F4601E003460F46DA6D0121A3F85460D5
:101F600020469668336898473368804603212046A8
:101F70009847336800218146204698470646204608
:101F800000F0A8F9204600964B464246394600F03C
:101F900023F920460BF0AAF803A801F021FB05F075
:101FA0009FFB284605B0BDE8F083406B02F0E8FDDA
:101FB000039B871CD0E700BF2DE9F04F89B007468F
:101FC0000D4601F0A9F9034601213846DA6D059363
:101FD00094682368984723680321804638469847C9
:101FE00023680221834638469847236800218246A9
:101FF00038469847814605980CF036FB064605980A
:102000000CF03AFB03460598448E04F02004A4B279
:10201000B4B1B0F95420B0F95840002A4AD091B276
:10202000C06E0C44A4B280B10391029201930AF0F5
:102030006FFC019B0FFA80FC029A80B2039905E0C5
:1020400021462246C06E0028EED184461FFA89FE42
:10205000013E013B0FFA88F8CBEB060674440EF103
:10206000FF3ECAEB030336B2044471446B812A80FD
:1020700005A8A5F802C0EC8069822E812E82A5F801
:102080000480A5F80C80A5F80E9001F0A9FA08AA22
:10209000B5F910403846B5F90C3006A942F8044DA0
:1020A000069300F04BF8069A079BAA812B8209B091
:1020B000BDE8F08F406B019302F062FD821C019B32
:1020C000059891B212B20C44A4B2BBE708B5438E96
:1020D00003F020039BB24BB10246B0F9540000B1AB
:1020E00008BD506B02F04CFD023008BD184608BD1B
:1020F00070B58AB00C46064601F00EF90AABC26D07
:1021000043F8280D1846956801F06AFA0196032CE9
:1021100005D8DFE804F00F0C0902172302936B685F
:1021200001A898470AB070BD15230293F7E716235C
:102130000293F4E718230293F1E700BF2DE9F0437F
:1021400083B088460446914601F0E6F8034602A8AB
:10215000DA6D40F8083D9568B3F90070B3F9026094
:1021600001F03EFA2B68204600219847054620469C
:102170000AF014FB68B3044607E001A801F030FA46
:1021800020460AF069FB044618B3204601F0C4F863
:10219000B0F9023001909B1B9D42EED1836A1B0671
:1021A0000BD5B0F90030D9F80020DB1B934203F1C6
:1021B000FF33E2DCC9F80030DFE7B0F90430D8F8CB
:1021C0000020DB1B934203F10103A8BFC8F80030D5
:1021D000D3E703B0BDE8F0832DE9F04F83B0884624
:1021E0009A460546914601F097F8C26D02AED2F8C4
:1021F00008B046F8080DFFF769FF0446304601F0C5
:10220000EFF9DBF80030012128469847DBF8003071
:102210000321064628469847DBF800300746002190
:10222000284698474445834609D14E4507D157452E
:1022300005D10C9B984202D103B0BDE8F08F28462F
:10224000C8EB04040AF0AAFA05460028F4D04FF0BF
:1022500000080C9BC9EB0606C7EB0A07C3EB0B0B88
:10226000C1460BE0B3F5007F11D001A801F0B8F929
:1022700028460AF0F1FA05460028DDD0284601F08C
:102280004BF8836A019003F42073802BEAD1CCB918
:10229000836A1A060BD49B05E7D508F1010308FBF6
:1022A00004615A46284698460BF09AFADDE709FB86
:1022B00014715A46284609F101090BF091FA019B65
:1022C0009B6AE8E72846224621460BF055FB019819
:1022D000DEE700BF70B586B0064601F01DF8034684
:1022E00006A89C6E40F8183DDD6E01F079F914B92E
:1022F0000DB906B070BD304601A9FFF75DFE6CB99F
:10230000002DF6D0BDF90A202846BDF90630BDF9EA
:102310000810D21A0BF026FA06B070BDBDF90A20DB
:102320002046BDF908100BF01DFABDF90E20BDF9CD
:102330000A602046BDF90C30BDF90810921B591AED
:10234000013201310BF0C2FD002DD2D0DAE700BF1F
:102350002DE9F043456887B0044628460AF08AFA1A
:10236000074600F0D9FF034606A85E6E40F8143D0C
:10237000D3F84880D3F8809001F032F923680E3BFF
:10238000232B3FD8DFE803F035463E3E3E3E121297
:102390003E123E3E3E3E3E3E18243E3E2B3E3E3EDC
:1023A0003E3E3E3E3E3E3E3E3E3E3E30204609F0F4
:1023B0005FFE07B0BDE8F083E368002BF9D0B9F108
:1023C000000F3BD04D4539D048460BF069FCF0E793
:1023D0002146384609F024FB07B0BDE8F083C4F875
:1023E0000C8007B0BDE8F0830023E36007B0BDE8D0
:1023F000F083E3685A68002A04DD1B68092B1DD0AE
:102400000A2B1FD0002ED1D020466760B04707B0FE
:10241000BDE8F0836FF07043984504D0404608F063
:1024200071F801F089FA002EC3D002AF94E80F00D2
:1024300087E80F0038460395B047BAE728460BF007
:102440009BFCB6E728460BF0DFFCB2E72DE9F04134
:10245000044686B000200F46E668904604F096FDDC
:1024600005460EB13379E3B925F0020004F08EFD84
:102470002669EEB1D4F80CC00123D4F808E0384640
:1024800003934146029363882288CDF804C0CDF8B7
:1024900000E03468A047284606B0BDE8F04104F0EB
:1024A00075BD40F0020004F071FD2669002EE1D1F7
:1024B000134E2146134B32681B68527CE0689847E4
:1024C000B4F806E0A8B16388012605903846228852
:1024D0004146CDF808E0A768A488049703940196C4
:1024E000009607F023F9284606B0BDE8F04104F055
:1024F0004DBDBEF1010FE6D13368986BE3E700BF35
:10250000300A0024200A0024204B70B51E6802F017
:1025100023FC1F4C0025304607F0F4FF05F0E0F8DF
:102520001C4B1E6802F018FC304608F025F805F038
:10253000D7F802F011FC012223681A7605F0D0F8D2
:1025400002F00AFC23689D8505F0CAF802F004FC3D
:1025500023685D8505F0C4F802F0FEFB284608F00C
:102560003DF805F0BDF80C4B1D6802F0F5FB236843
:1025700005B1DD6105F0B4F802F0EEFB236800223E
:102580009A76BDE8704005F0ABB800BF2C0A002475
:10259000300A0024280A0024240A0024014B83E87E
:1025A0000300704710160324014B83E803007047B3
:1025B00018160324014B83E80300704720160324F8
:1025C000704700BF704700BF2DE9F04F5C4E8DB0E3
:1025D0003368DA69B3F92250D469B4F80CB0834592
:1025E00000F29780E1898142C0F093802168CBEBB3
:1025F000000B08914FF0FF310A91BBF1FF3F00F053
:10260000828092F81880A27CB3F92A10B3F9249042
:1026100018FB02F3084607911F4694F810A007F034
:10262000DDFFD6F800E008994346DEF838C0524690
:10263000099007FB0B10DEF81CE00B9701270490B4
:102640004946CDF814C0284694F812C00297CDF838
:102650000CC09EF81BC0DFF8E8B0CDF804C09EF8AF
:102660001AE0CDF800E007F061F80A9F7B1C25D046
:10267000079941F0020007F0B1FFDBF800100B9A58
:1026800043460898D1F838C002FB0700D1F81CE097
:102690000127CDF814C00490524694F812C0494660
:1026A00002972846CDF80CC09EF81BC0CDF804C098
:1026B0009EF81AE0CDF800E007F038F83368DFF84C
:1026C0008080DB695A7E1B7E9A4215D9079B022BBC
:1026D00012D083F0040007F081FFD8F800302846BC
:1026E000DB691F7ED97E9A7E5B7E07FB01910AFB28
:1026F00002524B4407F022FA9DF8240007F06EFFC7
:102700003368B3F92250627C15445D840DB0BDE896
:10271000F08FA1680029F6D00F88B842F3D3B1F842
:1027200002E08645EFD3C01B4968676880B208970E
:1027300001EB800731F920B0B7F902100A915CE78C
:10274000300A0024044B1B68DB69DB6909B11A7C81
:102750000A60587C704700BF300A002402230B80B7
:10276000704700BFC3699A898A4202D8DA898A42CF
:1027700011D2986818B10388994201D2002070479D
:1027800042888A42FAD3C91A436833F82100C04309
:10279000C0F3C03070470120704700BF2DE9F04FF3
:1027A0003A4D89B02B68DA69B3F92A90D36943B1FD
:1027B0001A88904202D35988814205D29B68002B27
:1027C000F6D109B0BDE8F08F841AD3F804804846EA
:1027D00008EBC40696F802B007F000FF82462868AE
:1027E00018F834204FF0010EC769D0F838C0B0F99E
:1027F0002410B0F922003B7E0790CDF814C0706819
:10280000CDF80CB00490CDF808E097F81BE00798DD
:10281000CDF804E0BF7E009706F088FF2B68DA69E8
:10282000537E177EBB4223D9B9F1020F07931FD005
:1028300092F81BB002F018F9814602F0DFF804F0BC
:1028400087FB124B18F834E01868079BC169B0F990
:102850002240CA7EB0F9241020460EFB02420BFB38
:1028600003130BFB071107F069F9484604F070FBEE
:10287000504607F0B3FE2B687178D8695A8C807E79
:1028800000FB01225A8409B0BDE8F08F300A002411
:102890002DE9F0473A4E84B000250C46336804AF6A
:1028A000B046AA46DB6947F80C0D93F81990DB7E19
:1028B00019FB03F9013C384622D404F0D3FD3368F8
:1028C00082460146DB69D86900F088F80028F1D01B
:1028D000038841683846C3EB0A03D8F8002003EBAD
:1028E0004303D26901EB8303927E93F902101B79B3
:1028F0000B4402FB03F3002BC8BFED18013CDCD5F1
:10290000BAF1000F03D0504606F042FB054433688D
:102910001C49B3F92220B3F92430541E0968581E0B
:10292000ADF808202544ADF80A308144ADF80C50CC
:10293000ADF80E9019B18B680BB102A8984702F060
:1029400093F8336804465B8D5B0716D402F056F8A3
:1029500004F0FEFABDF90E30BDF90C20BDF90A10E5
:10296000BDF9080007F0EAF8204604F0F1FA064B3A
:1029700001221A7004B0BDE8F08702F075F8E7E7AD
:10298000300A0024881A0324601A032470B5104DFD
:1029900082B00C462B680190B3F92A60B20712D0BE
:1029A000013C09D401A8013C04F05CFD2B68DB6903
:1029B0001B689847631CF5D129680022054B4E859A
:1029C0001A7002B070BD044B1B689847E8E700BF5F
:1029D000300A0024601A0324080B002440B1038845
:1029E0008B4202D843888B4202D280680028F6D1FD
:1029F000704700BF014B1860704700BF080B0024F0
:102A0000114B1B6870B4DD69EB6943B11A889042C1
:102A100002D35C88844205D29B68002BF6D118460D
:102A200070BC7047821A5E68AC7E06EBC2035B78AE
:102A300013FB04F00029F3D016F8323014FB03F333
:102A400070BC0B60704700BF300A002401230B806C
:102A5000704700BFC06950B103888B4202D84388D9
:102A60008B4203D280680028F6D17047012070475E
:102A70002DE9F047244F3D68002D3FDD234EC5EB87
:102A80004515DFF88C804FF0000A3468D8F80090C4
:102A900004EB85050C340C35A4F108037422494677
:102AA0001846FEF7B7F8221F2063A06344F80CAC69
:102AB0006263E4607C34A542EED10024254603E045
:102AC00082B13A68954213DA16F094FD3368013505
:102AD0001A5919197C349042F2D10431C8F8001007
:102AE000BDE8F08708600431C8F80010BDE8F08741
:102AF00019460431C8F80010BDE8F087034BDFF831
:102B000010801968E9E700BF1C0B0024BC180324DF
:102B1000300A0024F8B5184F184B3846184E40F8C4
:102B20000C3F06F0B3FB3468C4EB4414A400204609
:102B300000F028FA134B224600211B6838609847A2
:102B40004FF0FF33736016F05FFD3368002B0FDD2D
:102B50000024254603E062B133689D4208DA16F08E
:102B600049FD3B6801351A5923447C349042F2D127
:102B7000F8BD1860F8BD00BFBC1803241957010840
:102B80001C0B0024280B00242DE9F04F674D89B061
:102B9000934698462A680646129B0C46139D00935E
:102BA000137C9B077FD5624BB8F1000F1868079024
:102BB0006DDDABF1040208EB040391080193C1EB56
:102BC000817301319B0002918900059103EB0B0198
:102BD000D31803934B1F0493BBF1030F5ADD029BE1
:102BE000B046AA4605EB03091AF8017B08AB40463C
:102BF000214603EB9713BF0013F8042C07F00EFDDA
:102C000008ABFFB208F10100214603EB9713BF00A8
:102C100013F8042C07F002FD08ABFFB208F1020024
:102C2000214603EB9713C7F3011713F8042C07F0A1
:102C3000F5FC08AB08F1030021461F4408F1040825
:102C400017F8042C07F0EAFCD145CDD1039BC3B1A2
:102C500099F80070DDF81480DDF81090B04408ABEE
:102C600009F1FF394046214603EB971308F10108AB
:102C7000BF0013F8042C07F0D1FCB9F1FF3FFFB2FD
:102C8000EDD1009B01341D44019BA342A4D109B0A6
:102C9000BDE8F08FBBF1000FF3D02F780BF1FF39B7
:102CA0004FF00008DAE7D36B224FD3F80090936B14
:102CB0003A681B68914535D01846029307F0F2F93F
:102CC0008246484607F0EEF951460522C7F808A0AB
:102CD000019006F0B9FC5146DDF804A0F8600A2224
:102CE000504606F0B1FC38611348C7F814A007F04D
:102CF0009FF9029BC7F800907B60104822460E4B5C
:102D00003146047803F10C00A3F80CB01C71BDF837
:102D10000040A3F80E801C825D6109B0BDE8F04F51
:102D2000FFF794BB7A689342C6D1E6E7300A0024E5
:102D3000C88A0808EC170324E40A0024601A032454
:102D400009B9084670472DE9F0410E46054602F0E4
:102D500003F802F001F830460CF0CCFC044604F015
:102D6000BFFC24B3174FFA697B6B013203EBC4013C
:102D7000FA6113F83420013203F83420D1F80480CA
:102D800008F10800C5B1104B324629461B68984728
:102D9000D8F800107A6B0B4D12F83130012B03D9A3
:102DA000E86908B10138E861013B02F8313004F00C
:102DB00097FC2046BDE8F081044B324629461B684B
:102DC0009847E5E790190324240B0024280B0024DE
:102DD00000B9704710B5044601F0BEFF20460CF064
:102DE00089FC044604F07CFC204610BDF8B505467D
:102DF00001F0B2FF25B9002404F072FC2046F8BDB2
:102E000001F0AAFF28460CF075FC044604F068FCAB
:102E1000002CF0D0144E2A46144F0021F069736B39
:102E2000013003EBC405F06113F83400013003F8FE
:102E300034006D683B6805F1080098472968726B9B
:102E400012F83130012B01D9F06930B9013B02F899
:102E5000313004F045FC2046F8BD0138013BF061FB
:102E600002F83130F5E700BF90190324280B002445
:102E700021F00301014B83E8030070472816032467
:102E800000B9704770B50D4C054601F065FFEE00C6
:102E9000636B3344596848680CF07EFA6368626B70
:102EA0000021606A013316446360706002F83510D7
:102EB0006562BDE8704004F013BC00BF90190324A4
:102EC00028B1034AD36B036003B15860D0637047E5
:102ED00090190324F8B5054601F03EFF2C68B4B103
:102EE0000E4E01F039FFE700736B3B4459684868A8
:102EF0000CF052FA7368726B0020716A0133174448
:102F00007360796002F83400746204F0E9FB002316
:102F10002B60BDE8F84004F0E3BB00BF9019032428
:102F200000292BDD2DE9F04700258A46041F144FA8
:102F3000A94601F011FF54F8046F0135B6B101F054
:102F40000BFF7B6B4FEAC6084344596848680CF096
:102F500023FA7B68796B7A6A013388447B60C8F80E
:102F6000042001F836907E6204F0BAFBC4F80090A9
:102F700004F0B6FBAA45DCD1BDE8F087704700BF7E
:102F800090190324F8B58B4E044696F82830002B90
:102F90002FD00334356CF26B24F003040434A542C3
:102FA00038BF254662B152F8043C14469D4204D114
:102FB00014E054F8043C9D4210D02468002CF8D151
:102FC000F368B46B1C4454F8041C611A0B68002BA2
:102FD00068D14B689D426FDD002408E023680BB187
:102FE00061685960616801B10B60A24256D0204609
:102FF000F8BD714B01219A6886F8281058680AB903
:1030000082089A605A27102220254FF0400E37621E
:10301000802732644FF48072B5644FF400751968EC
:10302000C6F850E04FF4806EB7654FF40067326623
:103030004FF48052B5664FF40055A1F11403C6F861
:1030400070E0B7674FF4804EC6F880204FF4004719
:10305000C6F888504FF480324FF400350344C6F868
:1030600090E04FF4802EC6F898704FF40027C6F811
:10307000A0200222C6F8A8500125B1637363C6F8E8
:10308000B0E03261F060C6F8B8705D60756275607E
:103090000CF082F910F028FA35637AE723682046AD
:1030A000F363F8BD002012F0C1FE54F8041C611A4D
:1030B0000B68002B90D18CE7581BD6F8B8703D4AAE
:1030C000041DBB420C4472D2D2F8B070BB426CD229
:1030D000D2F8A870BB4266D2D2F8A070BB4260D2D0
:1030E000D2F898709F425AD9D2F89070BB4254D20D
:1030F000D2F88870BB424ED2D2F88070BB4248D220
:10310000926F934243D2376F2A4ABB423DD2976EA9
:10311000BB4238D2176EBB4233D2976DBB422ED220
:10312000176DBB4229D2976CBB4224D2126C9342DA
:103130000CD2F2687369521B2B44F260736110B9B0
:1031400044F8045C53E70CF027F9F9E700223768EC
:10315000D1F808E0FF1ACB683760BEF1000F01D04C
:10316000CEF8043013B1C3F800E0E2E706EBC20288
:10317000C2F844E0DDE70122E9E70222E7E70322A3
:10318000E5E70422E3E70522E1E70622DFE707227D
:10319000DDE70822DBE70922D9E70A22D7E70B227D
:1031A000D5E70C22D3E70D22D1E70E22CFE70F227D
:1031B000CDE700BF9019032428160324F8B54A4C24
:1031C00094F82830002B3DD0D4F8BC30464A3BBBA5
:1031D000D2F8B43023BBD2F8AC300BBBD2F8A43059
:1031E000F3B9D2F89C30DBB9D2F89430C3B9D2F835
:1031F0008C30ABB9D2F8843093B9D36F83B9536FA5
:1032000073B9E36E63B9536E53B9D36D43B9536D5C
:1032100033B9D36C23B9536C13B96FF00B00F8BDFD
:103220009B68002BF9D0002201E09B6843B15968EC
:103230001046914201D90A4608469B68002BF4D1FA
:103240000C38F8BD294B01219A6884F82810586879
:103250000AB982089A605A26102220254027266241
:10326000802622644FF48072A5644FF400751968BB
:1032700027654FF48067A6654FF4006622664FF419
:103280008052A5664FF40055A1F114032767A66785
:103290004FF48047C4F880204FF40046C4F88850AB
:1032A0004FF480324FF400350344C4F890704FF46B
:1032B0008027C4F898604FF40026C4F8A0200222AA
:1032C000C4F8A8500125A16363632261E060C4F8DB
:1032D000B070C4F8B8605D60656265600CF05CF861
:1032E00010F002F925636FE79019032428160324D0
:1032F00030B1044B5B6B03EBC000436858680C387B
:10330000704700BF90190324024A93690133936107
:10331000704700BF90190324084AD169536B0131EB
:1033200010B4D16103EBC00413F83020013203F86C
:10333000302060685DF8044B083070479019032412
:1033400009B9084670472DE9F8438846064601F05A
:1033500003FD40460CF0CEF9054604F0C1F9002DFE
:1033600066D0002E64D0344CF700636B3B445B683E
:103370005B68A3F10C008045A8BF804601F0ECFC1F
:10338000636BE169424613F8350003EBC50802316F
:1033900003EB070C0130DFF8A4E003F83500D8F8A0
:1033A0000480E16113F8361008F10800013103F8D8
:1033B0003610DCF80490DEF8003009F10801984777
:1033C000D8F80010636B13F83120012A03D9E069A3
:1033D00008B10138E061013A03F83120D9F8001052
:1033E00013F83120012A06D9E069DFF84CE010B16A
:1033F0000138CEF81C00013A03F8312001F0ACFC92
:10340000636B3B44596848680BF0C6FF6368626BA6
:103410000020616A013317446360796002F8360066
:10342000666204F05DF904F05BF92846BDE8F883B4
:103430002846BDE8F88300BF90190324240B00241C
:10344000F8B5584C01F088FC94F82830002B57D080
:10345000D4F8BC30534A9BBBD2F8B43083BBD2F80B
:10346000AC306BBBD2F8A43053BBD2F89C303BBB22
:10347000D2F8943023BBD2F88C300BBBD2F8843016
:10348000F3B9D36FE3B9536FD3B9E36EC3B9536ED6
:10349000B3B9D36DA3B9536D93B9D36C83B9536CDE
:1034A00073B96FF00B034049DA1781FB0313C2EBCA
:1034B0006313246A04FB03F404F012F92046F8BDF8
:1034C0009B68002BF5D0002201E09B6843B159684E
:1034D0001046914201D90A4608469B68002BF4D158
:1034E0000C38B0F5800F0346DDD8226A2E4B02FB64
:1034F00000F0A3FB00235C0904F0F2F82046F8BDBD
:103500002A4B01219A6884F8281058680AB9820861
:103510009A605A261022202540272662802622649F
:103520004FF48072A5644FF40075196827654FF455
:103530008067A6654FF4006622664FF48052A56648
:103540004FF40055A1F114032767A6674FF4804795
:10355000C4F880204FF40046C4F888504FF48032FD
:103560004FF400350344C4F890704FF48027C4F83A
:1035700098604FF40026C4F8A0200222C4F8A85096
:103580000125A16363632261E060C4F8B070C4F8F0
:10359000B8605D60656265600BF0FEFE0FF0A4FF31
:1035A000256355E7901903241F85EB512816032442
:1035B000102807D9054B5A685208904228BF104678
:1035C000986070471020014B9860704728160324BC
:1035D000024A9369013B9361704700BF901903242D
:1035E00003680B4A30B4044653F8085C506B10F87B
:1035F0003530012B03D9D16909B10139D1610022DC
:10360000013B00F835301046226030BC704700BFE7
:1036100090190324034B5B6B03EBC0004068083038
:10362000704700BF90190324A8B32DE9F041044668
:1036300082B0084682BB154602AE2046FFF76CFEFC
:103640000346078846F8080D3046D3F80480FFF794
:10365000C7FF791C40468900FFF772FE804660B3C1
:10366000FFF75AFE034602A840F8043D43F82750EE
:10367000FFF7B6FF2046FFF74FFE034630461A8895
:10368000C3F80480013200931A80FFF7A9FF0020DD
:1036900002B0BDE8F08170471146FFF751FB0546C7
:1036A0000028C9D12046FFF737FE02AB43F8080DCA
:1036B0001846FFF795FF0120EAE72846FFF7E0FBF1
:1036C0000120E5E70820FFF791BB00BF00B9704774
:1036D00030B583B00546FFF71FFE436800903BB945
:1036E0006846FFF77DFF2846FFF7CAFB03B030BDF1
:1036F0001846FFF711FE009B01901B885BB1002468
:1037000000E0019800EB84000134FFF7E3FB009B2D
:103710001B88A342F5DC01A8FFF762FF0098043084
:10372000FFF7D8FB009B00221A80D9E730B583B0A1
:103730000C46FFF7F1FD03880090A34201D94568CC
:1037400025B96846FFF74CFF03B030BD01F004FB1C
:103750002846A500FFF7E0FD01902844FFF7BAFBDB
:10376000009B1A88013A92B2A2421A8007DD019B9F
:10377000121B291D920058191944FDF74BFA01A894
:10378000FFF72EFF03F0ACFF6846FFF729FF03B0F9
:1037900030BD00BF10B582B018B90446204602B053
:1037A00010BDFFF7B9FD02AB048843F8040D1846BD
:1037B000FFF716FF204602B010BD00BF10B582B063
:1037C00018B90446204602B010BD0C46FFF7A4FD10
:1037D000038800909C4206D300246846FFF700FF50
:1037E000204602B010BD406808B90446F5E7FFF76F
:1037F00093FD02AB50F8244043F8040D1846FFF740
:10380000EFFEEAE710B582B008B30C46FFF784FD7F
:10381000038800909C4206D300246846FFF7E0FE30
:10382000204602B010BD40680028F5D0FFF774FDB7
:1038300002AB50F8244043F8040D1846FFF7D0FEC1
:10384000002CE9D02046FFF767FD0446E5E7044673
:10385000204602B010BD00BF2DE9F04114460646D7
:10386000884601F079FA204601F00AF9E8B9A70084
:103870001B4D3B1905EB8303DA68B24206D11B6985
:10388000434503D1BDE8F04103F02ABF3B1905EBE6
:1038900083035869D0B93C4405EB8404E660C4F85E
:1038A0001080BDE8F04103F01BBF0D4B04EB840416
:1038B00003EB840463689A685968C2EB0802711AC2
:1038C00003F0AAFBBDE8F04103F00ABF5B689A6809
:1038D0005968C2EB0802711A02F03EFFDBE700BF35
:1038E000D8160324C3B2CAB29A1A92B210B414B250
:1038F000002C1EDBC1F30722C0F307239B1A9BB2E7
:103900001AB2002A12DB090C02FB02F2C1EB1041D1
:1039100004FB042089B20CB2002C01DA49420CB23B
:10392000A1B25DF8044B01FB010070475B421AB283
:10393000E9E7524214B2DDE700212DE9F0410846E3
:1039400082B001F033F9184F01F006FA042006F0B6
:1039500045FE164B43F6FF763D461B6980463446CE
:103960006846DA6C1B6D174416441D441C44ADF8C0
:103970000070ADF80460ADF80250ADF806400AF0F2
:1039800083FE48B1234632462946384606F0D6F82B
:103990000AF00CFD0028F5D1404606F01FFE03F0AA
:1039A0009FFE02B0BDE8F08101C0FFFF200A0024A5
:1039B0002DE9F04182B016461C4607460D4601F03F
:1039C000CBF9042006F00AFE134B804668461B69BB
:1039D000DA6C1B6D174416441D441C44ADF800708E
:1039E000ADF80460ADF80250ADF806400AF04CFEA8
:1039F00048B1234632462946384606F09FF80AF079
:103A0000D5FC0028F5D1404606F0E8FD03F068FE3D
:103A100002B0BDE8F08100BF200A00242DE9F0418A
:103A200082B0B0F90070B0F90260B0F90450B0F99A
:103A3000064001F091F9042006F0D0FD134B8046BA
:103A400068461B69DA6C1B6D174415441E441C4400
:103A5000ADF80070ADF80450ADF80260ADF8064066
:103A60000AF012FE48B123462A463146384606F08F
:103A700065F80AF09BFC0028F5D1404606F0AEFD43
:103A800003F02EFE02B0BDE8F08100BF200A002442
:103A90002DE9F047044682B00D461646002B37D07C
:103AA0009A46009651460B9B204626680A9AB047D4
:103AB000074618B9384602B0BDE8F08708F0E8FDBF
:103AC000618A8046384608F09BF8013D38460AF086
:103AD0003FFA40460AF03CFA002D1DDD4FF0000988
:103AE00003E00AF035FA013D16D054F81C6F0023AC
:103AF000CDF80090414620461A46B04706460028B9
:103B0000EFD1384608F000FB304602B0BDE8F08740
:103B100008F0CCFD8246C4E740461D2109F0FCFFB9
:103B2000BAF1FF3FC6D001F017F908F045FE60B9C1
:103B3000BA4502D038460AF01FF903F0D1FD3846E5
:103B400002B0BDE8F0870028F4D0FFF763FD80697C
:103B50008742F8D1F1E700BF80B582B000AF78604E
:103B6000054B1B68002B03D0034B1B6878689847F4
:103B700000BF0837BD4680BD501A0324012B17DC57
:103B80002DE9F04107461C2090460D461E46FFF7E2
:103B9000F9F90446D0B16DB1056100232046A66154
:103BA000A4F81480E76023606360A360BDE8F0813F
:103BB00000207047074B53F826200AB9EDE71A4654
:103BC0001368002BFBD113692361E6E70020BDE8F1
:103BD000F08100BF701A0324012B3BDC2DE9F84370
:103BE00081461C2090460F461E46FFF7CBF905463E
:103BF00000287FD0414A002F31D00023DFF804E1B4
:103C000052F8264003609EF8001007618E428661DC
:103C1000A0F81480C0F80C904360836002DB731C32
:103C20008EF80030002C5DD021464C68002CFBD172
:103C3000D9F80000CB681B6883422CDD0968002995
:103C4000F8D148B92E4B163628461A6842F8265045
:103C5000BDE8F883002070472846BDE8F88352F895
:103C60002610002930D0084600E018460368002BD3
:103C7000FBD10069DFF88CE02B6028619EF8000022
:103C8000AE618642A5F81480C5F80C906B60AB60FD
:103C9000CBDB0C46C3E70AD04B6843B31D606B60B7
:103CA0008D4214BF0B4600234D602B60C9E7B8F16D
:103CB000010FF1D104E0DC68194623688342EBDB95
:103CC0000B68002BF7D1E7E7DFF838E001609EF8DA
:103CD000003086619E42A0F81480C0F80C904160CC
:103CE0008160D6DA42F82650D9F80000A9E742F8F8
:103CF0002650D5E70020BDE8F88300BF701A0324E2
:103D0000300A0024681A0324FFF7DAB800283DD0EF
:103D100070B48469012C03DD0123184670BC704720
:103D20001F4B1A78944221DA1E4D55F824300BB9F6
:103D300032E013465A68002AFBD1C268116802E0DB
:103D40001B68002BE8D0DA6812689142F8DB10D0CB
:103D50005A68F2B110604260984214BF1A460022BD
:103D6000586000230260184670BC7047621C1A70CD
:103D7000DAE7828A012AEBD104E0D668134632687A
:103D80009142E5DC1A68002AF7D1E1E701231846E1
:103D9000704745F82400DFE745F82400BDE700BF81
:103DA000681A0324701A032400284DD02DE9F0412D
:103DB000DFF89CE0254F9EF80060BC4601E02846F5
:103DC0003DB384690568012CF9DCB44201DB661C53
:103DD000F6B257F824300BB933E013465A68002A7C
:103DE000FBD1C268116802E01B68002BE7D0DA68DB
:103DF00012688A42F8DC10D05A68A2B110604260A2
:103E0000984214BF1A460022586002602846002DCE
:103E1000D7D18EF80060BDE8F081828A012A0CD0EB
:103E20005A68002AEAD147F82400E9E7D2F80C8062
:103E30001346D8F800208A42DEDB1A68002AF5D142
:103E4000DAE74CF82400BAE7704700BF701A032481
:103E5000681A03240F4A816952F8213098420AD027
:103E600042680AB103681360036803B15A60002313
:103E7000036043607047036842F821302BB1002291
:103E80005A604268002AEED1F0E74268002AEAD17F
:103E9000EDE700BF701A032400207047012810DCF2
:103EA000094B53F8200068B1C3681B68994204D1DC
:103EB00009E0C3681B688B4204D000680028F8D171
:103EC0007047002070477047701A032401280EDCE9
:103ED000084B53F8200058B1C3681B681BB908E0B1
:103EE000C3681B6823B100680028F9D1704700201F
:103EF00070477047701A0324F0B5074683B00C2052
:103F00000E461546FEF772FF044688B100F024FF06
:103F10002046FFF701FA084A034602A85F6040F80E
:103F2000043D1E815D811A60FFF75AFB03F0D8FB48
:103F3000204603B0F0BD00BFF4BC080800B97047CC
:103F40002DE9F04182B01E4615460C460746FFF7A4
:103F5000E3F902AB026843F8040D1846D2F800807A
:103F6000FFF73EFB33462A4621463846C04702B09B
:103F7000BDE8F0812DE9F843074615F03FFBDFF877
:103F80006C90074415F03AFBDFF864803E1A002E6F
:103F900022DD00F04BFCD9F800309E42A8BF1E463F
:103FA00000F0DAFED8F80040FFF7AEF9B4B12546CC
:103FB00003F096FB013DFBD1304615F015FB00F0F8
:103FC000CBFE013CFBD1FFF703FB03F089FB15F0AF
:103FD00015FB3E1A002EDCDCBDE8F883304615F0F8
:103FE00003FBFFF7F5FA03F07BFBF0E7400A002440
:103FF000C01803242DE9F04F4A4D83B0044600F069
:10400000ABFE00F053FD2B680646B3F9228000F0AA
:1040100093FD2B681FFA80F99A8CC9EB020212B249
:104020009A84217800294FD0B6B22F4647F6FF7107
:10403000204604F085FF01468346204604F040FFF9
:1040400029688B8D03F00303012B5AD0022B5CD01F
:104050001FFA80FA4FF0000E4B8C0AF1FF3CB1F9C9
:104060002420CEEB0303ADF80220013A9BB2B01836
:104070006A460FFA83FE6344ADF806002046A1F8B5
:1040800022E05946ADF800E0ADF8043003F020FF1F
:104090002B682046BDF8022059469A8403F0F6F9B1
:1040A000235C04440A2B1BD00D2B19D0BDF8000053
:1040B0003B688244A3F822A022781AB162780134C6
:1040C000002AB3D1B3F92420998D914421F0030241
:1040D000A3F824909A8503F003FB03B0BDE8F08FAA
:1040E0002B689A8D02F00302013A012A16D8A3F830
:1040F000228022780A2AE0D19A8C32449A8422784B
:10410000DBE71FFA80FEF246A6E7002803461FFA07
:1041100080FAB8BF431CC3F34F0E9DE71A8C5A8434
:10412000E7E700BF300A002470B50E461546044686
:1041300000F012FE054B1B685E849D8414B120467E
:10414000FFF758FFBDE8704003F0CABA300A0024F8
:1041500020B3F0B50C4683B00546164600F0FCFDD2
:10416000D4B1204609F0E4FE074638B102462146A4
:10417000684604F053FF684609F0DAFE32462146ED
:1041800047F6FF73284603F005FF384609F0D0FED6
:1041900003F0A6FA03B0F0BD2746EFE7704700BF73
:1041A00030B32DE9F0410C4682B005461F46164655
:1041B00000F0D2FDD4B1204609F0BAFE804638B1F5
:1041C00002462146684604F029FF684609F0B0FE21
:1041D0003B4632462146284603F0DCFE404609F0C5
:1041E000A7FE03F07DFA02B0BDE8F081A046EFE73C
:1041F000704700BF08B100F001B870472DE9F04FDB
:1042000089468BB01546044603921F4600F0A4FD74
:10421000B9F90030B9F904100193CE1AB9F9063092
:104220000291B9F902B00136059300F03FFC15F098
:104230000C0A049076D11FFA80FA484609F078FEFD
:1042400002460490A8B10199002506A82B4661F307
:104250000F0502996BF31F4561F30F03059906954E
:1042600061F31F434946079304F0D8FE06A809F0FE
:104270005FFE039B1FFA8BF503F003080AF1FF337F
:1042800003934346B0461E4615E0022E34D01EB9B5
:10429000B9F80030ADF820302046594608AA5544F8
:1042A00003F016FE20463A46414605F06FF80444F6
:1042B000ADB2237873B33A464146204605F0C8F8BC
:1042C000BDF80420039B8346ADF820202046EB1860
:1042D000BDF808205946ADF82250ADF82420ADF8BD
:1042E000263004F0EDFD012ECFD1B9F804300133B2
:1042F000181AADF82000CFE7B9F90010B9F9043069
:104300005B1A181A013048BF013001EB6000ADF8AC
:104310002000C1E7049809F00BFE03F0E1F90BB0AF
:10432000BDE8F08F254600F017FD3A463146284695
:104330004FF0000805F02AF848B105443A463146E6
:1043400008F10108284605F021F80028F5D103F00E
:10435000C7F9BAF1080F08D0BAF10C0F10D0BAF1B2
:10436000040F02D0BDF810A067E7BDF810A0059BB0
:1043700018FB0AF85D1CC8EB05050FFA85FB5CE726
:10438000059B049ACBEB0303BDF810A0013308FB97
:104390001238B8F1000FB8BF08F101080BEB68053F
:1043A0000FFA85FB49E700BF2DE9F04FDFF8F890E1
:1043B00089B0044690460F4600F0CEFCD9F8003094
:1043C00006A82588DA6C1E6D013D63881744B04449
:1043D000013B7A19ADF818704344ADF81A80ADF876
:1043E0001C20ADF81E300AF04FF9002851D0CB4602
:1043F000DFF8B8A01BE040F0020002F0C7FD26691C
:104400002EB3E0680122D4F808E0414663880392A5
:104410000292228801903846CDF800E03668B04715
:10442000284602F0B3FD09F0C1FF002831D0E6684C
:10443000002002F0ABFD054616B13379002BDAD12E
:1044400025F0020002F0A2FD2669002ED9D1D9F88C
:1044500000202146DAF80030527CE0689847E18875
:10446000E0B16388012622880590A0680291414648
:1044700004903846B4F804E00196CDF80CE00096BC
:1044800005F054F9284602F081FD09F08FFF00285D
:10449000CDD103F025F909B0BDE8F08F0129E0D1B5
:1044A000DBF80030986BDCE7300A0024200A002497
:1044B0002DE9F04F91B080461E460F46914600F020
:1044C0004BFC674B0EA81C68E56C246D05EB0803DC
:1044D00005EB0902E1193444079308920291019413
:1044E000ADF83830ADF83C20ADF83A10ADF83E40AC
:1044F0000AF0CAF8002800F09780019B029A1A99E6
:10450000C2EB030B9DF86820C1F307241B99BBF194
:10451000000F5B46C1F307271A99B8BF0BF10103DF
:104520000BFB02FEC1F307401B995B109DF86CC0AA
:10453000C1F307461A9903EB0E05090E0A950BFB0A
:1045400004353C1B03940BFB0034301A0BFB013386
:104550005E460B950D931B9B0C94C1EB136304906B
:104560000593C2EB0C03069300F07EFA1A9B1B9A8C
:104570000990934269D0002E52D0029D019A954233
:104580005BDC0AAF86464FF0010B97E8800706E038
:104590000BF1010B0135019BA646AB422FDB7046A8
:1045A0009AFBF6F499FBF6F197FBF6F398FBF6FC11
:1045B0002206059C43EA0C23A24442EA0144049AE1
:1045C0001C43029B9144069AAB421744039A9044C1
:1045D000E0DA7445DCD005F0CFFFBBF1010FCBEB87
:1045E000050105F1FF33089A079822D005F0A6FAD5
:1045F0000135019B4FF0010BA646AB42CFDA2046B6
:1046000005F0BAFFBBF1010F19D0019B089ACBEB63
:1046100003010798013105F091FA099805F0ACFF04
:1046200009F0C4FE00289FD103F05AF811B0BDE88C
:10463000F08F691E05F000FAACE705F09DFF089ABF
:104640000199079805F0F8F9E7E7184605F094FF97
:10465000019B089A0299079805F070FADDE700BF00
:10466000300A0024F0B5144F83B006460D461446B8
:1046700000F072FB3B686846196DDA6C0E44154415
:10468000144433B2ADF80050ADF80440ADF8023038
:10469000ADF8063009F0F8FF50B13B6822463146CC
:1046A00028465B6E1B68984709F080FE0028F4D10D
:1046B00003F016F803B0F0BD300A002470B5134EB5
:1046C00082B005460C4600F047FB33686846DA6C5A
:1046D0001B6D15441C442AB223B2ADF80420ADF87A
:1046E0000020ADF80630ADF8023009F0CDFF48B13A
:1046F0003368214628465B6E5B68984709F056FE92
:104700000028F5D102F0ECFF02B070BD300A0024A1
:104710002DE9F04782B0044689469246984600F05B
:104720001BFB1E4B68461F683E7EFD6C013E3F6DC5
:104730002C445544B2B2B944B844A61A5119C2EB3C
:1047400009034244ADF80060ADF80410ADF8023042
:10475000ADF8062009F098FFD8B109F1010708F17A
:10476000FF362A464946204605F066F92A46414664
:10477000204605F061F932463946204605F0B6F983
:1047800032463946284605F0B1F909F00FFE0028F7
:10479000E7D102F0A5FF02B0BDE8F087300A00249F
:1047A00070B582B0064614460D4600F0D5FA104B9F
:1047B00068461A68D36C126D1E441544144433B213
:1047C000ADF80250ADF80640ADF80030ADF8043059
:1047D00009F05AFF40B122462946304605F086F9D5
:1047E00009F0E4FD0028F6D102F07AFF02B070BDB6
:1047F000300A002430B585B000232A220D466946D0
:104800000193029304460393009209F075F9039B08
:1048100013B1012283E8240000F09EFA204609F03B
:10482000B3FC02F05DFF05B030BD00BF2DE9F041E3
:104830000025124F124EDFF84C803C681CB1A04797
:10484000041C18BF012407F099FD3368002818BF25
:1048500001244BB1984738B1D8F8003013B1012486
:1048600098473CB10125E8E7D8F80030002BF7D194
:10487000002CF7D12846BDE8F08100BF9C1A032424
:10488000A01A0324981A0324F0B583B007461646ED
:104890001C460D4600F060FA104B68461B68DA6C47
:1048A0001B6D174416441D441C44ADF80070ADF850
:1048B0000460ADF80250ADF8064009F0E5FE48B1DD
:1048C000234632462946384605F038F909F06EFD90
:1048D0000028F5D102F004FF03B0F0BD300A002437
:1048E000F0B583B0B0F90070B0F90260B0F90450CF
:1048F000B0F9064000F030FA104B68461B68DA6CDD
:104900001B6D174415441E441C44ADF80070ADF8EF
:104910000450ADF80260ADF8064009F0B5FE48B1AC
:1049200023462A463146384605F008F909F03EFD8F
:104930000028F5D102F0D4FE03B0F0BD300A002407
:10494000002850D0C388013B10B5848880681F2B95
:1049500047D8DFE803F0162346314646463C464634
:1049600046464646464046464646464646464646ED
:10497000464646464610A31002FB031150F821009C
:1049800010BD02FB04F200EBD104C843A35C00F0AD
:10499000070023FA00F000F0010010BD02FB04F252
:1049A00000EB91046FEA4100A35C00F0060023FADB
:1049B00000F000F0030010BD02FB04F200EB510414
:1049C000CB07A05C4CBF00F00F00000910BD02FB3C
:1049D0000404605C10BD631002FB031130F8110089
:1049E00010BD002010BD7047034B082153F8200074
:1049F000C3689B6A184700BF701A032410B500F003
:104A0000ABF905F0DBF805F04DFB044602F068FE5B
:104A1000204610BD10B5044600F09EF9054B00215C
:104A200020461B68DB695B689847044602F058FE25
:104A3000204610BD300A002438B504460D4600F06B
:104A40008BF9064B294620461B68DB695B68984753
:104A5000044602F045FE204638BD00BF300A00245F
:104A600008B107F0EDBD704710B500F075F905F01D
:104A7000ADF805F017FB044602F032FE204610BDEB
:104A8000012801D900207047014B53F820007047DE
:104A90005017032410B500F05FF9034B1B681C7C12
:104AA00002F01EFE204610BD300A002410B500F0B2
:104AB00053F9044B1B68DB695C7E02F011FE204653
:104AC00010BD00BF300A002470B504460E461546DE
:104AD00000F042F9204631462A4605F045F90446E1
:104AE00010B1002333602B6002F0FAFD204670BD48
:104AF00038B505460C4600F02FF9064A064BB2F9C8
:104B00000020B3F900302A602360BDE8384002F08D
:104B1000E7BD00BF561A0324581A032414F06EBDD3
:104B2000044B3422352061219A701870184619718F
:104B3000DA707047180A002410B500F00DF90F4B19
:104B40001A68938D03F00C03082B08D00C2B06D0A9
:104B5000042B0BD0002402F0C3FD204610BDD36906
:104B60001C7E02F0BDFD6408204610BDD3691C7E8A
:104B700002F0B6FD013C204610BD00BF300A002403
:104B8000027EC07E02FB00F0704700BF024B53F86C
:104B900020301B6918687047701A0324024B53F8C1
:104BA00020301B6958687047701A032438B50546D1
:104BB0000C4600F0D1F8044B1B685D849C8402F025
:104BC0008FFD002038BD00BF300A002490B583B0AF
:104BD00000AF544A534B1B6823F001031360524B40
:104BE0001B68C3F30A0340F2494293420CBF0123FE
:104BF0000023DAB24C4B1B68C3F30A0340F2514165
:104C00008B420CBF01230023DBB21343DBB21946F6
:104C1000454B1B68C3F30A0340F2524293420CBF58
:104C200001230023DBB20B43002B10D03F4B0122AA
:104C30001A6000BF3D4B1B68002BFBD13C4B3D4A2B
:104C40001A603B4B1B683C4A934218D0FEE73B4B33
:104C50001B68C3F30A03B3F58A6F10D1384B0122E6
:104C60001A6000BF364B1B68002BFBD1354B314A15
:104C70001A60344B1B68304A934200D0FEE703F0C1
:104C8000E5F8314B2E221A7014F0BCFC2F4810F0BE
:104C90007DF812F0EBF9786005F0E0F80346002BA0
:104CA0000CBF01230023DCB205F01EF90346002BE4
:104CB0000CBF01230023DBB22343DBB2002B09D05E
:104CC00005F0E2F8044605F025F9034619462046AA
:104CD00005F07EFC0021002002F0AEF908F0EAF8B1
:104CE000FDF7C6FE1A4B1B68002B12D00DE0184BC7
:104CF0001B681B68002B03D0154B1B681B6898476B
:104D0000134B1B685B68124A1360114B1B68002B26
:104D1000EDD1104B01221A707B6818460C37BD4646
:104D200090BD00BF002000E0002004E008300240F9
:104D300000300240C2A507F4CDB5E8B50010005C14
:104D4000084C0258004C0258541A03243C16032401
:104D5000B4160324611A03242DE9F041224D6B6837
:104D600023B114F047FCAB68984204D014F096FCD1
:104D700014F040FCA8606B680133012B6B6001D01C
:104D8000BDE8F081194F3B68002B28DD0024264642
:104D900005E03AB301363B687C349E421FDA14F0DA
:104DA00029FC2B681A5923449042F2D17B68B34204
:104DB000E6D0002B10DBC3EB43132A6802EB830819
:104DC000FFF76AF82A680A4B1444C8F87800221DD5
:104DD000A06F1A60FEF7E8FF7E60BDE8F081002456
:104DE0002646E3E71860E1E7BC1803241C0B002407
:104DF000300A002410B582B028B9134B1B681C6E12
:104E000014B902B010BD0446FFF7A6FF2046FEF716
:104E100083FA02AB446943F8080D1846FEF7E0FB3D
:104E20001CB902F05DFC02B010BD204602ACFEF7DA
:104E300073FA826844F8040D936898472046FEF799
:104E4000CFFB02F04DFCEEE7300A002400B97047BA
:104E5000014A114600F002B801F0FFFF2DE9F047CA
:104E6000DFF8F88084B00C4615460646FFF774FF5D
:104E7000002002F08BF8D8F80030814630461F6ED3
:104E8000FEF74AFA03680090986901F09BFF324BE5
:104E900082469C42009B53D01A895B89013AADF847
:104EA0000840013BADF80A5022442B44ADF80C20D9
:104EB000ADF80E3006F0FCFE6846FEF791FB02A846
:104EC00009F0E2FB48BB504601F07CFFFFF744FFCE
:104ED000002F3DD0D8F800301B6EB3BB07F0B8F8F8
:104EE0003846FEF719FA04ACD8F8003044F80C0D37
:104EF0001F660068FEF70AFF2046FEF771FB05F00B
:104F00003FFC05F02BFB02F0EBFB484602F03EF8BD
:104F100002F0E6FB04B0BDE8F0872A4621463046A1
:104F200000F022FD09F042FA0028CCD02A462146A2
:104F3000304600F019FD09F039FA0028EDD1C2E73A
:104F4000B3F90440B3F90650A6E701F02DFFC5E719
:104F500001F02AFFD7E700BF01F0FFFF300A00246D
:104F60002DE9F04385B00646904699460F46FFF777
:104F7000F3FE1C4A1C4B1268507C53F8204001E0A1
:104F80002468FCB1E3681A68042AF9D1DB6A0121BC
:104F9000204698470546D8B12469A3689847013050
:104FA00018D00C994B460294424600913046019528
:104FB000394600F04FFB044602F092FB204605B054
:104FC000BDE8F083FEF782FF044648B1C368DDE721
:104FD0000446F1E70C9B054C43F001030C93E0E71A
:104FE0002046ECE7300A0024701A0324CC4C080851
:104FF00000B9704710B582B00446FFF7ADFE104B04
:105000001B681B6E9C4217D02046FEF785F943694A
:10501000019063B90068FEF777FE01A8FEF7E0FA99
:105020002046FDF72DFF02F05BFB02B010BD1846D5
:1050300002F03CFB0198EDE701F0B6FEE4E700BFAB
:10504000300A00242DE9F04F87B0044692461D46F1
:105050008946FFF781FE574B1A68574B577CDB5741
:105060003846012B40F39A8004F0FEFE064638468F
:1050700004F040FF0746002C00F08D8005A904A82D
:10508000FFF736FD049A059B1644B4F900201F442F
:10509000B4F9023022EAE272013E23EAE373013FEF
:1050A000114602921846B4F9042003939642D4BFE5
:1050B000C1EB0601C1EB0201B4F9063002460E460F
:1050C0009F42D4BFC2EB0702C2EB03020136174670
:1050D000013705B97D42002E4FDD002F4DDD109BBD
:1050E0003246039900932B460298FFF739FF80461A
:1050F000002848D000F0FEF88742064604D02D4B29
:105100001B68986C002851D140463D460024DFF8CA
:10511000ACB000F0FBF90EE0AD1BACB95046344426
:10512000C847DBF80030FF2003B198474046FFF73F
:105130008DFEA74212DDAE42EEDD2946404600F06C
:10514000C5F9AD1B002CE9D0039B404602991A1902
:1051500000F012FA4046FFF74DFEDFE74046FFF74A
:1051600047FF002000F0D2F9B74206D0114B1B6870
:10517000986C10B133210AF021F802F0B1FA002046
:1051800007B0BDE8F08F5046C84702F0A9FA0120E9
:1051900007B0BDE8F08F039402949AE704F00EFE86
:1051A0000646384604F034FE074664E732210AF02A
:1051B00005F8A9E7300A00246C1A03240C1903240B
:1051C00030B5044683B098B1FFF7C6FD2046FEF720
:1051D000A3F8036802AD1B6945F8040D9B68984766
:1051E00005F0EEFB04462846FEF7FAF902F078FADD
:1051F000204603B030BD00BFA0B110B5044682B058
:10520000FFF7AAFD2046FEF787F802AB00F118046D
:1052100043F8040D1846FEF7E3F902F061FA204660
:1052200002B010BD704700BF10B5044682B0FFF752
:1052300093FD7CB12046FEF76FF802ABB0F9044055
:1052400043F8040D1846FEF7CBF902F049FA204660
:1052500002B010BD044B1B681C6E002CEAD102F09A
:105260003FFA204602B010BD300A002410B50446B3
:1052700082B0FFF771FD7CB12046FEF74DF802AB1E
:10528000B0F9084043F8040D1846FEF7A9F902F0FA
:1052900027FA204602B010BD044B1B681C6E002C80
:1052A000EAD102F01DFA204602B010BD300A0024F7
:1052B00010B5044682B0FFF74FFD7CB12046FEF7E3
:1052C0002BF802ABB0F9064043F8040D1846FEF780
:1052D00087F902F005FA204602B010BD044B1B68A6
:1052E0001C6E002CEAD102F0FBF9204602B010BD82
:1052F000300A002410B5044682B0FFF72DFD7CB1C2
:105300002046FEF709F802ABB0F90A4043F8040D55
:105310001846FEF765F902F0E3F9204602B010BD29
:10532000044B1B681C6E002CEAD102F0D9F9204610
:1053300002B010BD300A00242DE9F04F804687B03E
:10534000002758E0002E7ED107F0B0F9804500F02C
:105350009A80584B01264946224602935846564B9E
:10536000009601932B4600F075F981464046FDF703
:10537000D3FF03460590C0F82490B9F1000F79D00F
:10538000826A05A8DFF840B142F480329A62FEF7E3
:1053900027F9484600F0BAF882463046474E02F0F8
:1053A000A5FB4846FFF728FF454B05FB04F2454C9B
:1053B000197892003568A84740462568CBF80080E8
:1053C00007F066FA2060404609F0CAFD0022256019
:1053D0001046CBF8002002F089FB504600F096F80A
:1053E0004046FEF717F9406AB0FA80F35B090137CF
:1053F000042F22DC0BB34046FDF78EFF034605A8C1
:10540000B3F900B0B3F90290B3F90440B3F9065010
:10541000CBEB04040593C9EB05055E6A0134FEF786
:10542000DFF80135002DC8BF002CD4BF01230023B5
:1054300088DC01370020042FDCDD08B100F0D8F84B
:1054400007B0BDE8F08F3046FDF766FF034606A8BB
:10545000B3F9065040F8083DB3F90440FEF7C0F830
:10546000A94501D1A345BBD04A465946304600F074
:1054700083F8B5E705A8FEF7B3F8404609F070FDDC
:1054800033464846B3E704F0D3FC064604F016FD65
:10549000B44202DC85427FF75CAFB442A8BF344619
:1054A0008542A8BF0546214640462A4608F00EFD23
:1054B0004FE700BFCC4C080800B30808280B0024B5
:1054C000101903248C190324286B032430B50D46CE
:1054D00083B028B90C4B1B681C6E14B903B030BDE7
:1054E0000446FFF739FC2046FDF716FFB0F90A30F5
:1054F0000190AB42C8BF458101A8FEF771F802F0E8
:10550000EFF803B030BD00BF300A0024F0B5164FED
:1055100083B00446FFF720FC3B681E6EE4B1C6B9B9
:1055200006F096FD2046FDF7F7FE02AD3B6845F814
:10553000040D1C660068FEF7E9FB2846FEF750F8EC
:1055400005F01EF905F00AF802F0CAF8304603B07B
:10555000F0BD01F029FCE3E701F026FC02F0C0F801
:10556000304603B0F0BD00BF300A0024014B186084
:10557000704700BFB417032470B50D4682B01646BD
:1055800028B91A4B1B681C6E14B902B070BD0446D2
:1055900036B22DB2FFF7E0FB2046FDF7BDFEC68018
:1055A0008580009004F0DAFF009B586930B96846A6
:1055B000FEF716F802F094F802B070BDFDF7ACFEED
:1055C000009B0190B3F90820B3F90A308280C380B0
:1055D00013B10AB10580468001A8FEF701F86846BC
:1055E000FDF7FEFF02F07CF8E6E700BF300A00247A
:1055F00000B9704770B5044684B0FFF7ADFB204694
:10560000FDF78AFE014601A8B1F90460B1F9065020
:105610000A894B89324401912B44ADF80860013A64
:10562000ADF80A50013BADF80C20ADF80E30FDF797
:10563000D7FF02A809F028F840B12A463146204693
:1056400000F074F908F0B2FE0028F6D102F048F834
:1056500004B070BD2DE9F04FDFF82C8187B0824691
:105660008B46D8F8000017461E461299437C00224C
:105670001198FEF783FA00284DD0036905469B6810
:10568000984705F09DF900FB07F48146FDF7D8FE29
:10569000109B073413F001034FEAD4043FD0002ECF
:1056A0002CDD002B42D004FB06F01830FDF790FBF8
:1056B000024668B30023029310460392FDF72CFEC6
:1056C000029A034606A8A3F804A0A3F806B01F8117
:1056D0005E81DC60C3F810905A6140F8043D1D60A3
:1056E000FDF77EFF129AD8F800302A61039A10461F
:1056F000AA605B7CAB6107B0BDE8F08F002C34D1B1
:10570000204676428642A8BF064693B3002ECADCE6
:105710002846FEF7F9FA002007B0BDE8F08F002810
:10572000B8BF0330801000EB4000B8E700933A4662
:1057300033465946504601F029FF029004FB06F01B
:105740001830FDF753FB02460028B5D128460392D6
:10575000FEF7DAFA029B002BDDD01846FDF790FB2E
:10576000039A104607B0BDE8F08F1838B0FBF4F08C
:10577000C7E700933A4633465946504601F006FFC4
:10578000002E0290DADCC3E7300A0024014B1860D7
:10579000704700BF0C1903242DE9F04FDFF880910A
:1057A0008BB05D4BD9F800C0DFF878819CF811E030
:1057B00053F82E40D8F80030D4F810E0002B00F059
:1057C000A6801646DCF8602007460D46002A75D0F4
:1057D000E2681268072A78D0504AC2EB0E02B2FA89
:1057E00082F25209002A70D03846FDF795FD034633
:1057F0000AA8B3F908B040F8083DB3F90AA00BEBCA
:105800000504DB68013C0593FDF7EAFED9F80010BA
:10581000B1F90C30B1F90800E41A002CCCBFC4EB8C
:105820000B045C4685425EDB0023002C43DD0AEB63
:105830000600B1F90EE00138CEEB00000028C8BF29
:10584000C0EB0A0AB1F90A00B04247DC0021BAF104
:10585000000F079306912EDD3846FFF7CDFC079B1E
:10586000D9F80020069901FB0B31136E00EB81077C
:10587000002B3CD01846FDF74FFD02460AA8B2F9AE
:105880000410B2F906306D1A40F8042DF31AA9007D
:10589000D56801F1180605FB03661644FDF7A0FE66
:1058A0004EB1059B2246009539460193304653463A
:1058B000D8F80040A0470BB0BDE8F08FE26812684E
:1058C000B2FA82F25209002A8ED173463246294634
:1058D000384611F073F90BB0BDE8F08F811B064616
:1058E000C1EB0A0AB3E7431B0546E41A9DE7507C67
:1058F0004FEA8B02DFF830E03B4602922946CDF8B2
:1059000004A032460094DEF80040A047D3E7734677
:1059100011F054F9CFE700BF701A0324CC4C0808EB
:10592000300A00247C1A0324781A03242DE9F0415C
:1059300082B00F4690460646FDF7EEFC034602ACE9
:1059400016211D68002044F8043DEB685B6A984707
:1059500005462046FDF744FE1DB142463946304615
:10596000A84702B0BDE8F08100B970472DE9F04FBB
:10597000A3B08B4692460446FDF7CEFC22AB4569A8
:1059800043F81C0D1846FDF72BFE2046FFF718FCC8
:105990000828814640DD002D3ED12046FDF7BCFCA5
:1059A00022AA0346B0F9081042F8100D10460D92D5
:1059B000B3F90A200A9109921968DA680E690B9303
:1059C0000E92FDF70DFE924892490068D6F80480C9
:1059D000407C51F820100D692B680C93FFF704F8F8
:1059E00008280B9B14D910288BBF202210220427D3
:1059F00002270B92AE4200F0F882B9F1200F00F0BE
:105A0000B381B9F1100F00F0458123B0BDE8F08FEC
:105A1000082201270B92EDE70021012320467C4E4E
:105A200020910DF188080B9121930A93FDF774FCE6
:105A3000074630683A68FB68B7F908101269139393
:105A400014913B69B7F90A10407C0993169148F804
:105A5000147D5568D7F81490FEF7C6FF32680E9093
:105A6000507CFFF79BF807464046FDF7B9FD099AC1
:105A70000A9B082A0B9940F29D80102A13460A912E
:105A80008CBF042302230C93BD4200F0C181336814
:105A9000587CFFF77BF8149B06469800FDF798F9B1
:105AA00010900028B1D02046FFF7A6FB0446B9F1BC
:105AB000000F00F088804846FDF72EFC169B1E90D4
:105AC000002B40F3A1810023DDF83880CDF834A00D
:105AD0000B93139BCDF848B0E31815931FAB1946F1
