:020000040800F2
:10000000806F0324690300086D5E0208753B0208D7
:100010003B5E020885CD0108219E02080000000019
:10002000000000000000000000000000AD02000819
:1000300063D4010800000000010300080B8B0208D4
:100040008303000883030008830300088303000878
:100050008303000883030008830300088303000868
:100060008303000883030008830300088303000858
:100070008303000891D2010883030008830300086A
:100080008303000883030008830300088303000838
:100090008303000883030008830300088303000828
:1000A0008303000883030008830300088303000818
:1000B0008303000883030008830300088303000808
:1000C00083030008830300088303000883030008F8
:1000D00083030008830300088303000883030008E8
:1000E0008303000875650208000000008303000810
:1000F00083030008830300088303000883030008C8
:100100008303000849710208830300088303000881
:1001100083030008830300088303000883030008A7
:100120008303000883030008830300088303000897
:100130008303000883030008830300088303000887
:1001400000000000000000000000000000000000AF
:100150008303000883030008830300085199020801
:100160008303000883030008830300088303000857
:1001700083030008830300088303000800000000D5
:100180008303000883030008830300088303000837
:100190008303000883030008830300088303000827
:1001A00095540208830300088303000883030008B2
:1001B0008303000883030008830300088303000807
:1001C00083030008830300088303000883030008F7
:1001D00083030008830300088303000883030008E7
:1001E00083030008830300088303000883030008D7
:1001F00083030008830300088303000883030008C7
:1002000083030008830300088303000883030008B6
:1002100083030008830300088303000883030008A6
:100220008303000883030008830300080000000024
:100230008303000883030008000000008303000814
:100240008303000883030008830300088303000876
:100250008303000883030008830300088303000866
:100260008303000883030008830300088303000856
:1002700083030008830300088303000800000000D4
:100280008303000800000000830300080000000052
:100290000000000083030008DFF80CD000F03CFDF4
:1002A00000480047F9FA0208806F03242B4B1968B5
:1002B0000868B0E8F04F80F30988BFF36F8F4FF004
:1002C000000080F3118870470000000006480068B5
:1002D000006880F3088862B661B6BFF34F8FBFF342
:1002E0006F8F00DF00BF00BF08ED00E0DFF80C00FB
:1002F000016841F470010160704700BF88ED00E0C3
:10030000EFF30980BFF36F8F144B1A681EF0100FC4
:1003100008BF20ED108A20E9F04F106008B44FF0BC
:10032000500072B680F31188BFF34F8FBFF36F8F09
:1003300062B631F0EFF84FF0000080F3118808BC8E
:1003400019680868B0E8F04F1EF0100F08BFB0EC55
:10035000108A80F30988BFF36F8F704780030024F1
:10036000EFF30580704700000648804706480047C5
:10037000FEE7FEE7FEE7FEE7FEE7FEE7FEE7FEE755
:10038000FEE7FEE7D98B02089902000881FB0020F6
:10039000704701464FF0000081EAE170A0EBE17088
:1003A000704700002DE9F04F82B001904FF00074CB
:1003B0004FF000784FF000054FF0000952F804CBE1
:1003C00052F804EB0868CB6DC0FB0C45D1F88000F7
:1003D000CEF1000EC3FB0E45D1F8DC30C0FB0C891A
:1003E000C3FB0E8952F804CB52F804EB48688B6DBE
:1003F000C0FB0C45D1F88400CEF1000EC3FB0E45C6
:10040000D1F8D830C0FB0C89C3FB0E8952F804CB5D
:1004100052F804EB88684B6DC0FB0C45D1F888009E
:10042000CEF1000EC3FB0E45D1F8D430C0FB0C89D1
:10043000C3FB0E8952F804CB52F804EBC8680B6D6D
:10044000C0FB0C45D1F88C00CEF1000EC3FB0E456D
:10045000D1F8D030C0FB0C89C3FB0E8952F804CB15
:1004600052F804EB0869CB6CC0FB0C45D1F8900046
:10047000CEF1000EC3FB0E45D1F8CC30C0FB0C8989
:10048000C3FB0E8952F804CB52F804EB48698B6C1D
:10049000C0FB0C45D1F89400CEF1000EC3FB0E4515
:1004A000D1F8C830C0FB0C89C3FB0E8952F804CBCD
:1004B00052F804EB88694B6CC0FB0C45D1F89800EE
:1004C000CEF1000EC3FB0E45D1F8C430C0FB0C8941
:1004D000C3FB0E8952F804CB52F804EBC8690B6CCD
:1004E000C0FB0C45D1F89C00CEF1000EC3FB0E45BD
:1004F000D1F8C030C0FB0C89C3FB0E8901984FF4C2
:10050000FE4E4EF0FF0E4FEA946444EA85144FEA23
:10051000E47CBCEBE43F18BF8CEA0E044FEA986819
:1005200048EA89184FEAE87CBCEBE83F18BF8CEA40
:100530000E080480A0F8028002F5707201F5805167
:100540004FF000744FF000784FF000054FF00009B5
:1005500052F804CB0868D1F88030C0FB0C45C3FBCF
:100560000C8952F804CB4868D1F88430C0FB0C45A4
:10057000C3FB0C8952F804CB8868D1F88830C0FBE3
:100580000C45C3FB0C8952F804CBC868D1F88C30F9
:10059000C0FB0C45C3FB0C8952F804CB0869D1F8A9
:1005A0009030C0FB0C45C3FB0C8952F804CB486962
:1005B000D1F89430C0FB0C45C3FB0C8952F804CB36
:1005C0008869D1F89830C0FB0C45C3FB0C8952F800
:1005D00004CBC869D1F89C30C0FB0C45C3FB0C8927
:1005E00001984FF4FE4E4EF0FF0E4FEA946444EA39
:1005F00085144FEAE47CBCEBE43F18BF8CEA0E04A0
:100600004FEA986848EA89184FEAE87CBCEBE83F73
:1006100018BF8CEA0E08A0F84040A0F84280A2F56E
:100620007872A1F570614FF00F0C00F10400CDF865
:1006300000C001904FF000744FF000784FF000764A
:100640004FF0007A4FF000054FF000094FF000071F
:100650004FF0000B52F804CB52F804EB0868CB6D56
:10066000C0FB0C45C0FB0E67CEF1000EC3FB0C6750
:10067000C3FB0E45D1F8DC30D1F88000C3FB0E89F6
:10068000C3FB0CABCEF1000EC0FB0C89C0FB0EAB64
:1006900052F804CB52F804EB48688B6DC0FB0C4554
:1006A000C0FB0E67CEF1000EC3FB0C67C3FB0E450B
:1006B000D1F8D830D1F88400C3FB0E89C3FB0CAB52
:1006C000CEF1000EC0FB0C89C0FB0EAB52F804CB80
:1006D00052F804EB88684B6DC0FB0C45C0FB0E67FD
:1006E000CEF1000EC3FB0C67C3FB0E45D1F8D4302E
:1006F000D1F88800C3FB0E89C3FB0CABCEF1000E12
:10070000C0FB0C89C0FB0EAB52F804CB52F804EBD3
:10071000C8680B6DC0FB0C45C0FB0E67CEF1000E28
:10072000C3FB0C67C3FB0E45D1F8D030D1F88C0069
:10073000C3FB0E89C3FB0CABCEF1000EC0FB0C89D2
:10074000C0FB0EAB52F804CB52F804EB0869CB6C3B
:10075000C0FB0C45C0FB0E67CEF1000EC3FB0C675F
:10076000C3FB0E45D1F8CC30D1F89000C3FB0E8905
:10077000C3FB0CABCEF1000EC0FB0C89C0FB0EAB73
:1007800052F804CB52F804EB48698B6CC0FB0C4563
:10079000C0FB0E67CEF1000EC3FB0C67C3FB0E451A
:1007A000D1F8C830D1F89400C3FB0E89C3FB0CAB61
:1007B000CEF1000EC0FB0C89C0FB0EAB52F804CB8F
:1007C00052F804EB88694B6CC0FB0C45C0FB0E670C
:1007D000CEF1000EC3FB0C67C3FB0E45D1F8C4304D
:1007E000D1F89800C3FB0E89C3FB0CABCEF1000E11
:1007F000C0FB0C89C0FB0EAB52F804CB52F804EBE3
:10080000C8690B6CC0FB0C45C0FB0E67CEF1000E37
:10081000C3FB0C67C3FB0E45D1F8C030D1F89C0078
:10082000C3FB0E89C3FB0CABCEF1000EC0FB0C89E1
:10083000C0FB0EAB01F5807101984FF4FE4E4EF0F7
:10084000FF0E4FEA946444EA85144FEAE47CBCEB63
:10085000E43F18BF8CEA0E044FEA986848EA89180A
:100860004FEAE87CBCEBE83F18BF8CEA0E084FEA81
:10087000966646EA87164FEAE67CBCEBE63F18BF71
:100880008CEA0E064FEA9A6A4AEA8B1A4FEAEA7C29
:10089000BCEBEA3F18BF8CEA0E0ADDF800C000EBA3
:1008A000CC0E2EF8026B2EF802AB20F8024B20F88B
:1008B000028BBCF1010C7FF4BAAE02B0BDE8F08F40
:1008C0002DE9F04F82B001904FF000744FF0000519
:1008D00052F804CB52F804EB0868CB6DCEF1000E51
:1008E000C0FB0C45C3FB0E4552F804CB52F804EB99
:1008F00048688B6DCEF1000EC0FB0C45C3FB0E4566
:1009000052F804CB52F804EB88684B6DCEF1000E20
:10091000C0FB0C45C3FB0E4552F804CB52F804EB68
:10092000C8680B6DCEF1000EC0FB0C45C3FB0E4535
:1009300052F804CB52F804EB0869CB6CCEF1000EF0
:10094000C0FB0C45C3FB0E4552F804CB52F804EB38
:1009500048698B6CCEF1000EC0FB0C45C3FB0E4505
:1009600052F804CB52F804EB88694B6CCEF1000EC0
:10097000C0FB0C45C3FB0E4552F804CB52F804EB08
:10098000C8690B6CCEF1000EC0FB0C45C3FB0E45D5
:1009900001984FF4FE4E4EF0FF0E4FEA946444EA85
:1009A00085144FEAE47CBCEBE43F18BF8CEA0E04EC
:1009B000048002F5707201F580514FF000744FF021
:1009C000000552F804CB0868C0FB0C4552F804CB74
:1009D0004868C0FB0C4552F804CB8868C0FB0C4546
:1009E00052F804CBC868C0FB0C4552F804CB086928
:1009F000C0FB0C4552F804CB4869C0FB0C4552F8CB
:100A000004CB8869C0FB0C4552F804CBC869C0FB15
:100A10000C4501984FF4FE4E4EF0FF0E4FEA9464E1
:100A200044EA85144FEAE47CBCEBE43F18BF8CEA4F
:100A30000E040484A2F57872A1F570614FF00F0CDA
:100A400000F10200CDF800C001904FF000744FF0AB
:100A500000764FF000054FF0000752F804CB52F833
:100A600004EB0868CB6DC0FB0C45C0FB0E67CEF1F4
:100A7000000EC3FB0E45C3FB0C6752F804CB52F8C3
:100A800004EB48688B6DC0FB0C45C0FB0E67CEF1D4
:100A9000000EC3FB0E45C3FB0C6752F804CB52F8A3
:100AA00004EB88684B6DC0FB0C45C0FB0E67CEF1B4
:100AB000000EC3FB0E45C3FB0C6752F804CB52F883
:100AC00004EBC8680B6DC0FB0C45C0FB0E67CEF194
:100AD000000EC3FB0E45C3FB0C6752F804CB52F863
:100AE00004EB0869CB6CC0FB0C45C0FB0E67CEF174
:100AF000000EC3FB0E45C3FB0C6752F804CB52F843
:100B000004EB48698B6CC0FB0C45C0FB0E67CEF153
:100B1000000EC3FB0E45C3FB0C6752F804CB52F822
:100B200004EB88694B6CC0FB0C45C0FB0E67CEF133
:100B3000000EC3FB0E45C3FB0C6752F804CB52F802
:100B400004EBC8690B6CC0FB0C45C0FB0E67CEF113
:100B5000000EC3FB0E45C3FB0C6701F580710198C5
:100B60004FF4FE4E4EF0FF0E4FEA946444EA8514B3
:100B70004FEAE47CBCEBE43F18BF8CEA0E044FEA7A
:100B8000966646EA87164FEAE67CBCEBE63F18BF5E
:100B90008CEA0E06DDF800C000EB8C0E2EF8026B1E
:100BA00020F8024BBCF1010C7FF44CAF02B0BDE861
:100BB000F08F2DE9F05F0546002092469B4688465F
:100BC0000646814640241BE02846414647462246C9
:100BD00000F091F853465A46C01A914110D311467D
:100BE0001846224600F078F82D1A67EB01084F46A8
:100BF00022460120002100F06FF817EB00094E415A
:100C0000201EA4F10104DFDC484631462A46434653
:100C1000BDE8F09F10B5441A0346944209D28418E7
:100C2000114403E011F8013D04F8013D521EF9D2D0
:100C300010BD40EA0104A40703D009E010C9121F47
:100C400010C3042AFAD203E011F8014B03F8014B58
:100C5000521EF9D210BDD2B201E000F8012B491E9C
:100C6000FBD270470022F6E710B513460A46044649
:100C70001946FFF7F0FF204610BD30B505462A465D
:100C80000B4612F8010B13F8014B08B1A042F8D043
:100C90001CB1002802D06D1CF1E7284630BD421C73
:100CA00010F8011B0029FBD1801A704730B50446AB
:100CB0000020034600E05B1C934203D2E05CCD5C65
:100CC000401BF8D030BD034611F8012B00F8012B72
:100CD000002AF9D118467047202A04DB203A00FA8E
:100CE00002F1002070479140C2F1200320FA03F383
:100CF000194390407047202A04DB203A21FA02F081
:100D00000021704721FA02F3D040C2F12002914045
:100D10000843194670470000064C074D06E0E0689E
:100D200040F0010394E8070098471034AC42F6D332
:100D3000FFF7B6FA542409087424090870B58D1811
:100D400010F8014B14F0030201D110F8012B23110C
:100D500006D110F8013B03E010F8016B01F8016BBC
:100D6000521EF9D1ABB110F8012B04F00C048A1A11
:100D70000C2C03D0A2EB84129B1C08E010F8014B52
:100D8000A2EB0422F8E712F8014B01F8014B5B1EBD
:100D9000F9D5A942D4D3002070BD000070B54568D4
:100DA00082B00446014628460DF080F968B12368F8
:100DB0000F2B59D00BDD282B45D0B3F5107F3CD03D
:100DC000112B49D020460DF081FD02B070BD0B2BD8
:100DD00020D00E2BF6D1E3681A6859680D2A53D03B
:100DE000202A31D1002928464FF480717DDD0DF095
:100DF0004DFA284602F064FC02AB846A43F8040D05
:100E0000184602F0C1FDA207DFD5284601210FF0E8
:100E1000B7FBDAE7284602AD02F052FC0346683021
:100E2000019302F02BFA55F8040D03216C3002F007
:100E30004BFA284602F0A8FDC4E7324B214628466B
:100E40001B689847C1E7E368002BBBD128464FF4E5
:100E500080710DF00FF9B5E72B4B1B68002BB4D058
:100E6000214628469847B0E7284602F029FC034669
:100E700002A840F8043D5B6E1C6802F085FD002C62
:100E8000A3D02846A047A0E70029DDDD4FF48071FC
:100E900028460DF0FBF902AC284602F011FC866AE8
:100EA00044F8040D204602F06FFDB10703D501217F
:100EB00028460FF065FB4FF4807128460DF0DAF8F4
:100EC000284602F0FDFB034620461E8E9C6A0193D5
:100ED00002F05AFD304607F005F8A3077FF575AF1D
:100EE000284602210FF04CFB6FE70DF0C3F82846AF
:100EF00002F0E6FB034602A89C6A1E8E40F8043D01
:100F0000E6E700BF980C0024141D03242DE9F04FE0
:100F100087B0804689469246129E9B46109F4C257C
:100F20001A4C04F06DFC01965B4600975246494608
:100F30004046039502940DF0CDFB064600B302F047
:100F4000BFFB10221199124F05900DF089FA0DF197
:100F5000180E3D1D5EF804CD0FCD0CF134040FC406
:100F60000FCD0FC495E80F0084E80F007B6B70462F
:100F7000CCF8643002F008FD7B6B30465B68984724
:100F800007F048FB304607B0BDE8F08F9D0D000824
:100F9000980C00242DE9F04F87B080468946924690
:100FA000119E9B46109F4C251A4C04F029FC01967B
:100FB0005B460097524649464046039502940DF021
:100FC00089FB064600B302F07BFB10221399124FF7
:100FD00005900DF045FA0DF1180E3D1D5EF804CD9B
:100FE0000FCD0CF134040FC40FCD0FC495E80F00E2
:100FF00084E80F007B6B7046CCF8643002F0C4FCD0
:101000007B6B30465B68984707F004FB304607B0BF
:10101000BDE8F08F9D0D0008980C00242DE9F04FDD
:10102000B0F90A6087B0B0F90C708B468569164438
:10103000B0F90E801F44B0F910A00446B0F9089032
:101040004C3504F0DDFBDFF8CCC04FF0000E42461B
:10105000CDF800B03946304603955346CDF808C068
:10106000CDF804E00DF036FB804628B907F0D2FA3F
:10107000404607B0BDE8F08F02F022FB244F4946FE
:101080000DF11809102205903E1D0DF0E9F959F8EF
:1010900004ED0FCE0EF134050FC50FCE0FC596E847
:1010A0000F0085E80F007B6B4846CEF8643002F0F5
:1010B0006BFC7B6B40465B68984707F0ABFA656852
:1010C00004F09EFB404602F0FBFA034604A89C6E27
:1010D0000493059402F058FC2946484609F048F963
:1010E0000028C3D0059B9C4209D0404602F0E8FA94
:1010F000059A034604A89A66049302F045FC40460C
:101100000EF068FE07F086FA404607B0BDE8F08FA3
:10111000980C00249D0D0008974A816843682DE9CA
:10112000F041044688B052F82160122B40D8DFE825
:1011300003F0B03F3F3F3F0A973F3F3F3F3F3F3FB6
:101140003F3F3F3F4300F569002D40F0B580371F1A
:1011500057F8040F06F01AFE04F1140120690EC9B5
:1011600028445B1B521B2944013503F06FFE022DFE
:10117000EED162693169E3690191911CF76813440A
:101180002069A2695B1028440097521B03F02EFDD2
:10119000E1696269B0698B1E1144A269019049102E
:1011A00020697669521B01312844009603F01EFD28
:1011B000002008B0BDE8F081006802F081FA876E77
:1011C0000490002F00F0D080A368B0F95C80002B61
:1011D00000F0C880032B14BF0023022300EB83031D
:1011E000406D08AC1D6C06F0FBFD284606F0CEFDF8
:1011F00006A804F077F9B28BBDF8181006A8BDF860
:101200001C301144BDF81A509A1ABDF81E30ADF8C2
:101210001810023554F8101D023BADF81C20B1F92E
:101220006020B1F95E10ADF81E30ADF81A5006F02E
:1012300069F8204608AC02F0A7FB022006F03AFE4F
:10124000384602F03DFA06A9424644F80C0D03F078
:1012500077F9204602F098FB002008B0BDE8F08145
:10126000006802F02DFA0490206810F01DFDB8B956
:10127000049B5D6F05B9DD6E04A802F085FB0023B9
:10128000284621681A4603F02DF8002008B0BDE872
:10129000F08100680FF09AFC002008B0BDE8F081F2
:1012A000A368002B64D1049A136F002B14BF6C2326
:1012B000682313445D68DFE7B268B046C36900275E
:1012C000039271688269029158F804090095616976
:1012D0000190206908F008FB58F8040F06F056FD4D
:1012E000F369A26921696069D21A1944384403F08C
:1012F00057FDF369A2692169E069D21A1944C01B3C
:1013000003F04EFDF369E26961692069D21A19445C
:10131000384403F087FFA069F369E269C01B616983
:101320000137D21A194403F07DFF022FD4D1B068DF
:1013300006F02CFDF16922696569901CE3690A4495
:101340005B1A2944013A03F0E1FFF169A06965697C
:10135000E369821E401A5B1A2944013003F0D6FF6C
:10136000F56906E7012339E704A802F00DFB1FE742
:10137000049BDD6E80E700BF04F1080810B5044649
:1013800082B078B104F03CFA204602F099F902AB41
:10139000448E43F8040D1846C4F3002402F0F4FA16
:1013A00007F038F9204602B010BD00BF054B064AD1
:1013B000064910B45C6A1160586220465DF8044B1F
:1013C000704700BF9C0C0024CC0C0024D00C0024DF
:1013D00000B9704730B5044683B00D4604F010FAEA
:1013E000204602F06DF902AB456543F8040D18463E
:1013F00002F0CAFA20460EF0EDFC07F00BF903B03C
:1014000030BD00BF38B51346002204460D461846CD
:10141000114602F045FF294602462046BDE8384005
:1014200000F034B870B582B018B90125284602B072
:1014300070BD04460D4604F0E3F9204602F040F981
:101440000346866E68468DE8480002F09DFA2946FC
:1014500001A808F08DFF00280CBF012500250FD042
:10146000019B9E4209D0204602F02AF9019A0346C8
:1014700068469A66009302F087FA20460EF0AAFCAE
:1014800007F0C8F8284602B070BD00BF00B9704729
:1014900070B5054682B00C46164604F0B1F92846F0
:1014A00002F00EF9022C019006D901A802F06CFAA4
:1014B00007F0B0F802B070BD1A34A4002044043024
:1014C00001F0DCFE019B28461C4466600EF082FCA5
:1014D000EBE700BFF0B5274F83B005463A68538C61
:1014E000D46C116D1C44938CA4B20B4421B2938430
:1014F000013C5184ADF8001003F0CEFF06462846AB
:1015000008F076FD3B683444B3F924602044ADF81C
:101510000260013EADF8040004F018F80644684685
:10152000ADF806600FF0CAFF80B90A2D1DD0BDF8D6
:1015300004303A6801331BB25384918CD46C106D23
:101540001B1B091A5384918403B0F0BD284601F097
:1015500021F90FF045FE0028E7D0284601F01AF9DE
:101560000FF03EFE0028F1D1DFE73A68B2F92230F1
:10157000E3E700BF6C0C00242DE9F04304468BB078
:1015800018B920460BB0BDE8F08316460D461F463D
:1015900000F05EFD8046204600F03EFD814604F0EE
:1015A0002FF905A9204600F0ABFEEA0719D4AB07D6
:1015B000BDF920004CBF40F20223022330444246D2
:1015C0000293494643468DE89000FFF79FFC04468E
:1015D00000210CF079FE07F01DF820460BB0BDE8A5
:1015E000F083BDF9242008F1FF308223101A801BFC
:1015F000E5E700BF10B50523FFF7BEFF0446054A27
:101600000021FFF7FFFE204603490FF05DF9204659
:1016100010BD00BF653F0108F5C101082DE9F04785
:10162000466886B00546304602F04AF8C36D009021
:10163000D0F88840D0F88070D0F86880B0F87C90FE
:10164000002B64D0D3F800A0684602F09DF914B9CD
:1016500009E024683CB16368284698470028F8D020
:1016600006B0BDE8F0872B68172B00F0A5801DDCC5
:101670000F2B00F08D807DDC0B2B00F0BF800D2B3D
:101680000AD119F0080F07D1EB68DB6823B11B7A88
:1016900013B130460FF0AEF9304629460CF006FD86
:1016A0000028DDD028460DF011F9D9E7262B75D09A
:1016B0002FDC1E2B00F0AE80202BEDD1EC68002C2F
:1016C000EAD03146606810F0D5FA002800F0C080FA
:1016D000304601F0F5FFB0F87C3002460190180763
:1016E00040F12D8101A802F04FF93146606810F0F9
:1016F000AFFA0028D0D0304601F0E2FF626803461E
:1017000001A80193C3F8802002F03EF9C4E79A468D
:101710009AE72A2B65D0B3F5107FBDD106AC3046D1
:10172000D5F80C8001F0CCFFB0F87C7044F8140DB3
:10173000204602F029F9EB68002B91D098F8083088
:10174000002B00F0AB80380740F1B78030460CF03A
:1017500015FF07F48873B3F5887F81D107F0800304
:101760009BB2002B7FF47CAF4146304605220FF040
:10177000EFF875E7112B22D0142B8DD1304601A93B
:1017800000F0BEFD02ABEA6803CB1060516067E772
:10179000BAF1000F80D03046D0477DE7EB68022BCE
:1017A0007FF45EAF272206A9A86841F8142D03969E
:1017B000049310F0E5FB53E7C5F80C8050E7EC68A4
:1017C000304601F07DFF01902389012B05D1B0F84F
:1017D0007C3043F48073A0F87C3001A802F0D4F888
:1017E0005AE7304601F06CFFEB680090002B68D0A0
:1017F000C0F88430684602F0C7F831E7304601F09F
:101800005FFF03467030009301F038FD684602F038
:10181000BBF841E7EC68012C57D0002E3FF420AF15
:1018200003F0EEFF304601F04BFFB0F87C3002468B
:1018300001901C0706D523F008033046A2F87C303F
:101840000EF0C8FA01A802F09FF806F0E3FE07E7E1
:10185000304601F035FFB0F87C30024601901907A0
:1018600006D523F008033046A2F87C300EF0B2FA19
:1018700001A802F089F83146206810F0E9F9002843
:101880003FF40AAF304601F01BFF2268034601A86F
:101890000193C3F8802002F077F8FDE6304601F0AE
:1018A0000FFF03462046B3F87C20019322F4807298
:1018B000A3F87C2002F068F8D2E630460FF09AF8E0
:1018C00044E7D0F88430EB6094E738460EF0A2FD90
:1018D00020B338460FF08EF838460EF029F9B0B92B
:1018E00026B9002F7FF4BCAEEF60B9E603F088FFA5
:1018F000304601F0E5FEB0F87C3002460190190751
:1019000025D501A802F040F806F084FEE9E721465B
:1019100038460CF0BBFC002EE3D0E7E740460FF062
:10192000D5F80746304601F0CBFE03466846C3F8BB
:101930008070009302F028F8002ED2D0D6E743F052
:1019400008033046A2F87C300EF044FACAE643F0B1
:1019500008033046A2F87C300EF03CFAD1E700BF15
:101960002DE9F04F8DB0074689469246169C9B465E
:10197000DDF85C80602503F043FF009448F4805656
:101980004C4C5B46524601964946384603950294B4
:101990000CF0A0FE064628B906F03CFE30460DB01D
:1019A000BDE8F08FDFF814B10DF1300901F088FEC9
:1019B000302219995D4604900CF052FD59F8207DB3
:1019C0004FF0000A0FCD07F134040FC40FCD0FC440
:1019D00095E803001B9B384D84E803007B6648466E
:1019E000BDF8603041F28274C7F880A0A7F87C305F
:1019F000DBF82830C7F86CA0FB65C7F888A001F0B9
:101A0000C3FF07A9304600F07BFCBDF92010BDF9EB
:101A10002270BDF924200846BDF92630521A0194DF
:101A2000DB1B39460132CDF80CA00133009602953C
:101A30000CF050FEDBF82830044630465B689847CF
:101A4000304601F03DFE034648469C66049301F093
:101A50009BFF42F2040308EA0303C3B103F0D0FE84
:101A6000304601F02DFE0346026F05A8059306924D
:101A700001F08AFF1A9906A808F07AFC58B906F016
:101A8000C9FD06F0C7FD30460DB0BDE8F08F304609
:101A90000DF08EF8E2E7304601F012FE069A03469A
:101AA00005A81A67059301F06FFF30460EF092F912
:101AB000E5E700BF1D160008992600085C0D00240C
:101AC0002DE9F04F0F46B0F90C108FB0B0F90A6055
:101AD00001EB030BB0F908308569164404934368A1
:101AE0006035B0F90E80B0F91090B0F812A00593EF
:101AF00003F086FE4B4C4FF4805E039559460097E9
:101B000030464B4642460294CDF804E00CF0E2FD2C
:101B1000054628B906F07EFD28460FB0BDE8F08FD7
:101B2000DFF808910EAE01F0CBFD0499302206904B
:101B30000CF096FC56F8207DCE464FF0000807F1D9
:101B40003404BEE80F000FC4BEE80F000FC49EE8C7
:101B50000300189B84E803007B663046D9F82830E0
:101B600041F28274A7F87CA0FB65C7F88080C7F8B3
:101B70006C80C7F8888001F007FF09A928462A4F22
:101B800000F0BEFBBDF92AE0BDF92810BDF92C20FC
:101B9000BDF92E300846521A0194CEEB030371466C
:101BA0000132CDF80C800133009502970CF092FDC4
:101BB000D9F82830044628465B689847284601F043
:101BC0007FFD034630469C66069301F0DDFE284605
:101BD0000CF0EEFF03F014FE284601F071FD034601
:101BE00007A81A6F0793089201F0CEFE059908A87E
:101BF00008F0BEFB38B906F00DFD06F00BFD2846D7
:101C00000FB0BDE8F08F284601F05AFD089A034650
:101C100007A81A67079301F0B7FE28460EF0DAF816
:101C2000E9E700BF1D160008992600085C0D002496
:101C30002DE9F041044690B0006800F0D5F9B04BB2
:101C40006668A3F12C05002808BF1D461C2E00F273
:101C5000F780DFE816F02200F500F500F500F5004A
:101C60003500F500F500F500F500F5005100F50030
:101C7000F500FA00F500F500F5000E01F500F5009D
:101C800048014A014C014E01F500F500F5001D0028
:101C90006E69304610B0BDE8F081206801F010FD9B
:101CA000034610A8B3F85A2040F82C3D42F00C022D
:101CB000A3F85A2001F068FE20680EF087FFE8E7DD
:101CC0002A690026B4F910300192B4F9147018464C
:101CD000EA68B4F918503946B4F91C40ADF81C3024
:101CE000009223462A46ADF81E70ADF82050ADF89C
:101CF000224002F07BFFCCE723681C2218460892A2
:101D0000079301F0DDFC034607A805931B6D984778
:101D1000064605A801F038FE012E40F32781A96888
:101D20003346626902916868A16901902F68206951
:101D3000009707F0D5FC2769A3693744C6EB030871
:101D4000286806F023F842463946606903F028F80F
:101D5000686806F01BF8606942463946013003F0B6
:101D60001FF86B6A022B00F3F4802A6A964217DA96
:101D70006769012E206907F1020840F32A810244B5
:101D8000374430444146013A3B4603F0BFFAA0696C
:101D9000821B3B46EF694146C01B013003F0B6FA97
:101DA000012E40F3138163691E44E7692868013FEF
:101DB00005F0ECFF314620693A4603F033FA3A4623
:101DC0003146A06903F02EFAE769686805F0DEFF86
:101DD000023F206931463A46013003F023FAA069F8
:101DE0003A463146013803F01DFAEB69022B40F305
:101DF0008280AB6AE769022BA868CCBFFF1A023F5A
:101E000005F0C4FFEA69022A00F39A802B6A022BCC
:101E100000F38C80286805F0B9FFA2692169E069A8
:101E200002F0BEFF686805F0B1FFA2692169E069B0
:101E3000013A0131013802F0B3FFAF6A022F61DCD1
:101E40000026304610B0BDE8F08104F11401276986
:101E5000A8680026ADF81C700EC9ADF81E10ADF8CC
:101E60002020ADF8223005F091FF07A803F07AFAA0
:101E70000FE7298B2269A3690A4465695B1AE16946
:101E80002068ADF82030ADF81C20ADF81E50ADF83C
:101E9000221001F015FC036F0590FBB1022006F043
:101EA00009F8059AB2F87C30C3F3C0030E3302EB95
:101EB0008303986805F06AFF059B586B05F090FF57
:101EC000059B186F01F0FCFB059B07A90690B3F971
:101ED0005A2002F035FB06A801F056FD05A80026A1
:101EE00001F052FDD5E6AE6AD3E6EE69D1E62E6A80
:101EF000CFE66E6ACDE62B6A022B8BDD79E700BF59
:101F0000C80D0024D4F81C800026A2692169A868A5
:101F1000951E8C1C05F03AFFC7EB08012A462046A7
:101F2000A8F10203013103F0F1F9B2E6A0693B46E2
:101F3000EF693146821EC01B013003F0E7F969E703
:101F400020693B46314602440230013A03F0DEF993
:101F50005CE7A86805F01AFF636938466F6A991C48
:101F600042463B44013B03F0D1F919E7286805F0EC
:101F70000DFF2269EB69114660691A44013A02F0CB
:101F80000FFFA369E9691A466069591A013102F025
:101F900007FF676920690137394602F02DFF39468E
:101FA000A06902F029FF686805F0F0FE2069394653
:101FB000013002F021FFA0693946013802F01CFF10
:101FC0002769A3690237A3F10208B9E666690236F8
:101FD000EBE60244434602304146013A474603F0ED
:101FE00095F9A069821ED4E610B5044682B080B18E
:101FF00003F006FC204601F063FB02ABB0F87C4026
:1020000043F8040D1846C4F3C00401F0BDFC06F00B
:1020100001FB204602B010BD30B5044683B0A0B12C
:1020200003F0EEFB204601F04BFB02ADC26D034610
:102030000021204645F8043D93681B6898470446F4
:10204000284601F0A1FC06F0E5FA204603B030BDB9
:1020500010B5044686B010B9204606B010BD03F096
:10206000CFFB204601A900F04BF9204601F028FBE8
:1020700006ABB0F9544043F8180D184601F084FC43
:102080000CB9BDF9044006F0C5FA204606B010BDF3
:1020900000B9704770B5044682B00D46164603F08D
:1020A000AFFB204601F00CFB012D019006D901A8E1
:1020B00001F06AFC06F0AEFA02B070BD00EB8501DB
:1020C00020468E630DF086FEF1E700BF00B9704731
:1020D00030B5044683B00D4603F092FB204601F074
:1020E000EFFA836C0190AB4203D08564806E0DF0F3
:1020F00071FE01A801F048FC06F08CFA03B030BD77
:10210000084B10B403F10C01074C1861074804F1A7
:102110001802E469036003C982E8030020465DF801
:10212000044B7047880D00245C0D0024840D0024AE
:10213000024BB3F92620D884104670475C0D00246A
:102140002DE9F041044684B00E4603F059FB24B952
:1021500006F060FA04B0BDE8F081204601F0B0FA64
:10216000458EC36D05F0200503909F68ADB245B163
:10217000B0F954502DB9406B03F056FA039B851CFF
:1021800000E003465E6303A801F0FEFB3B6801210B
:10219000204698473B6806460321204698473B68FF
:1021A00080460021204698470746204600F036FA30
:1021B0004346324629462046009700F0B1F92046B2
:1021C0000DF008FE06F026FA04B0BDE8F08100BF6D
:1021D00000B9704730B5044683B00D4603F010FBDC
:1021E000204601F06DFA0346026F684600930192A3
:1021F00001F0CAFB294601A808F0BAF818B906F0A0
:1022000009FA03B030BD204601F05AFA019A03469C
:1022100068461A67009301F0B7FB20460DF0DAFD1F
:1022200006F0F8F903B030BD00B9704730B5044688
:1022300083B00D4603F0E4FA204601F041FAB0F90C
:102240005A300190AB4204D0A0F85A5020460DF00D
:10225000C1FD01A801F098FB06F0DCF903B030BD28
:102260002DE9F04385B020B90546284605B0BDE804
:10227000F08304460E4603F0C3FA204601F020FA2C
:10228000B0F954500390B5422AD0418E01F020019C
:1022900089B219B16DB303462F4601E003460F46DC
:1022A000DA6D0121A3F85460204696683368984798
:1022B00033688046032120469847336800218146D1
:1022C000204698470646204600F0A8F9204600968A
:1022D0004B464246394600F023F920460DF07AFD80
:1022E00003A801F051FB06F095F9284605B0BDE8BA
:1022F000F083406B03F098F9039B871CD0E700BF85
:102300002DE9F04F89B007460D4601F0D9F9034693
:1023100001213846DA6D059394682368984723684D
:102320000321804638469847236802218346384671
:102330009847236800218246384698478146059889
:102340000FF0ACF8064605980FF0B0F80346059874
:10235000448E04F02004A4B2B4B1B0F95420B0F912
:102360005840002A4AD091B2C06E0C44A4B280B149
:102370000391029201930DF017F9019B0FFA80FC73
:10238000029A80B2039905E021462246C06E0028D9
:10239000EED184461FFA89FE013E013B0FFA88F810
:1023A000CBEB060674440EF1FF3ECAEB030336B2D4
:1023B000044471446B812A8005A8A5F802C0EC8012
:1023C00069822E812E82A5F80480A5F80C80A5F8DC
:1023D0000E9001F0D9FA08AAB5F910403846B5F9BF
:1023E0000C3006A942F8044D069300F04BF8069A0B
:1023F000079BAA812B8209B0BDE8F08F406B019347
:1024000003F012F9821C019B059891B212B20C44A0
:10241000A4B2BBE708B5438E03F020039BB24BB1D7
:102420000246B0F9540000B108BD506B03F0FCF84F
:10243000023008BD184608BD70B58AB00C46064685
:1024400001F03EF90AABC26D43F8280D18469568B5
:1024500001F09AFA0196032C05D8DFE804F00F0C7E
:102460000902172302936B6801A898470AB070BD50
:1024700015230293F7E716230293F4E71823029338
:10248000F1E700BF2DE9F04383B08846044691464A
:1024900001F016F9034602A8DA6D40F8083D956888
:1024A000B3F90070B3F9026001F06EFA2B682046B0
:1024B00000219847054620460CF09EFD68B304466F
:1024C00007E001A801F060FA20460CF021FF044665
:1024D00018B3204601F0F4F8B0F9023001909B1BCC
:1024E0009D42EED1836A1B060BD5B0F90030D9F8B6
:1024F0000020DB1B934203F1FF33E2DCC9F800301C
:10250000DFE7B0F90430D8F80020DB1B934203F179
:102510000103A8BFC8F80030D3E703B0BDE8F083DB
:102520002DE9F04F83B088469A460546914601F062
:10253000C7F8C26D02AED2F808B046F8080DFFF732
:1025400069FF0446304601F01FFADBF80030012134
:1025500028469847DBF8003003210646284698476E
:10256000DBF800300746002128469847444583465B
:1025700009D14E4507D1574505D10C9B984202D150
:1025800003B0BDE8F08F2846C8EB04040CF034FD1E
:1025900005460028F4D04FF000080C9BC9EB060656
:1025A000C7EB0A07C3EB0B0BC1460BE0B3F5007F8B
:1025B00011D001A801F0E8F928460CF0A9FE054663
:1025C0000028DDD0284601F07BF8836A019003F4EF
:1025D0002073802BEAD1CCB9836A1A060BD49B05F1
:1025E000E7D508F1010308FB04615A4628469846DE
:1025F0000DF06AFFDDE709FB14715A46284609F120
:1026000001090DF061FF019B9B6AE8E7284622461D
:1026100021460EF025F80198DEE700BF70B586B0C0
:10262000064601F04DF8034606A89C6E40F8183D9A
:10263000DD6E01F0A9F914B90DB906B070BD3046D0
:1026400001A9FFF75DFE6CB9002DF6D0BDF90A2097
:102650002846BDF90630BDF90810D21A0DF0F6FE75
:1026600006B070BDBDF90A202046BDF908100DF076
:10267000EDFEBDF90E20BDF90A602046BDF90C3013
:10268000BDF90810921B591A013201310EF038FBC6
:10269000002DD2D0DAE700BF2DE9F043456887B0BE
:1026A000044628460CF042FE074601F009F80346AE
:1026B00006A85E6E40F8143DD3F84880D3F88090A9
:1026C00001F062F923680E3B232B3FD8DFE803F0CB
:1026D00035463E3E3E3E12123E123E3E3E3E3E3E9F
:1026E00018243E3E2B3E3E3E3E3E3E3E3E3E3E3E5D
:1026F0003E3E3E3020460CF0E9F807B0BDE8F083DE
:10270000E368002BF9D0B9F1000F3BD04D4539D02B
:1027100048460EF06FF9F0E7214638460BF0C6FC4C
:1027200007B0BDE8F083C4F80C8007B0BDE8F083C3
:102730000023E36007B0BDE8F083E3685A68002A2D
:1027400004DD1B68092B1DD00A2B1FD0002ED1D011
:1027500020466760B04707B0BDE8F0836FF0704374
:10276000984504D0404608F081FF01F0B9FA002EE8
:10277000C3D002AF94E80F0087E80F0038460395F6
:10278000B047BAE728460EF0A1F9B6E728460EF0A2
:10279000E5F9B2E70A2838B514D00D28044610D060
:1027A00003F02EF8114B20461B68DB691B68984725
:1027B0000F4B1B680BB120469847BDE8384005F029
:1027C00029BF38BD094C03F01BF803F019F8236842
:1027D000DB695D7E05F01EFF23689A8C198C2A4404
:1027E00059849A84BDE8384005F014BF6C0C00246D
:1027F000641F03242DE9F041044686B000200F46F3
:10280000E668904605F0E0FA05460EB13379E3B983
:1028100025F0020005F0D8FA2669EEB1D4F80CC014
:102820000123D4F808E038460393414602936388B5
:102830002288CDF804C0CDF800E03468A0472846CF
:1028400006B0BDE8F04105F0BFBA40F0020005F067
:10285000BBFA2669002EE1D1134E2146134B326894
:102860001B68527CE0689847B4F806E0A8B163881A
:1028700001260590384622884146CDF808E0A76831
:10288000A488049703940196009608F003F828465C
:1028900006B0BDE8F04105F097BABEF1010FE6D1F0
:1028A0003368986BE3E700BF6C0C00245C0C0024D9
:1028B000204B70B51E6802F0A3FF1F4C0025304668
:1028C00008F0D4FE05F0A6FE1C4B1E6802F098FF2F
:1028D000304608F005FF05F09DFE02F091FF012251
:1028E00023681A7605F096FE02F08AFF23689D851C
:1028F00005F090FE02F084FF23685D8505F08AFEF6
:1029000002F07EFF284608F01DFF05F083FE0C4B09
:102910001D6802F075FF236805B1DD6105F07AFEE0
:1029200002F06EFF236800229A76BDE8704005F041
:1029300071BE00BF680C00246C0C0024640C0024E1
:10294000600C0024014B83E803007047DC1A032469
:10295000014B83E803007047E41A0324014B83E82A
:1029600003007047EC1A0324704700BF704700BF94
:102970002DE9F04F5C4E8DB03368DA69B3F922501F
:10298000D469B4F80CB0834500F29780E1898142A4
:10299000C0F093802168CBEB000B08914FF0FF3122
:1029A0000A91BBF1FF3F00F0828092F81880A27C70
:1029B000B3F92A10B3F9249018FB02F308460791E3
:1029C0001F4694F810A008F0BDFED6F800E0089964
:1029D0004346DEF838C05246099007FB0B10DEF87C
:1029E0001CE00B97012704904946CDF814C02846F7
:1029F00094F812C00297CDF80CC09EF81BC0DFF807
:102A0000E8B0CDF804C09EF81AE0CDF800E007F079
:102A100041FF0A9F7B1C25D0079941F0020008F076
:102A200091FEDBF800100B9A43460898D1F838C0A5
:102A300002FB0700D1F81CE00127CDF814C0049078
:102A4000524694F812C0494602972846CDF80CC069
:102A50009EF81BC0CDF804C09EF81AE0CDF800E047
:102A600007F018FF3368DFF88080DB695A7E1B7E31
:102A70009A4215D9079B022B12D083F0040008F06C
:102A800061FED8F800302846DB691F7ED97E9A7E29
:102A90005B7E07FB01910AFB02524B4408F002F9EE
:102AA0009DF8240008F04EFE3368B3F92250627C92
:102AB00015445D840DB0BDE8F08FA1680029F6D003
:102AC0000F88B842F3D3B1F802E08645EFD3C01BBC
:102AD0004968676880B2089701EB800731F920B038
:102AE000B7F902100A915CE76C0C0024044B1B68D8
:102AF000DB69DB6909B11A7C0A60587C704700BF4A
:102B00006C0C002402230B80704700BFC3699A89B4
:102B10008A4202D8DA898A4211D2986818B10388A9
:102B2000994201D20020704742888A42FAD3C91ADA
:102B3000436833F82100C043C0F3C0307047012020
:102B4000704700BF2DE9F04F3A4D89B02B68DA6924
:102B5000B3F92A90D36943B11A88904202D35988B5
:102B6000814205D29B68002BF6D109B0BDE8F08FF9
:102B7000841AD3F80480484608EBC40696F802B0DD
:102B800008F0E0FD8246286818F834204FF0010E66
:102B9000C769D0F838C0B0F92410B0F922003B7EE4
:102BA0000790CDF814C07068CDF80CB00490CDF843
:102BB00008E097F81BE00798CDF804E0BF7E009787
:102BC00007F068FE2B68DA69537E177EBB4223D973
:102BD000B9F1020F07931FD092F81BB002F086FCE8
:102BE000814602F04DFC05F0D1F8124B18F834E0A4
:102BF0001868079BC169B0F92240CA7EB0F9241059
:102C000020460EFB02420BFB03130BFB071108F0DF
:102C100049F8484605F0BAF8504608F093FD2B688D
:102C20007178D8695A8C807E00FB01225A8409B0E1
:102C3000BDE8F08F6C0C00242DE9F0473A4E84B0CB
:102C400000250C46336804AFB046AA46DB6947F856
:102C50000C0D93F81990DB7E19FB03F9013C384603
:102C600022D405F07FFB336882460146DB69D869D0
:102C700000F088F80028F1D0038841683846C3EB9B
:102C80000A03D8F8002003EB4303D26901EB830366
:102C9000927E93F902101B790B4402FB03F3002B85
:102CA000C8BFED18013CDCD5BAF1000F03D0504687
:102CB00007F09EF9054433681C49B3F92220B3F9A3
:102CC0002430541E0968581EADF808202544ADF87C
:102CD0000A308144ADF80C50ADF80E9019B18B68F4
:102CE0000BB102A8984702F001FC336804465B8DE3
:102CF0005B0716D402F0C4FB05F048F8BDF90E30AE
:102D0000BDF90C20BDF90A10BDF9080007F0CAFF93
:102D1000204605F03BF8064B01221A7004B0BDE8CE
:102D2000F08702F0E3FBE7E76C0C0024581F032454
:102D3000301F032470B5104D82B00C462B680190F3
:102D4000B3F92A60B20712D0013C09D401A8013CB2
:102D500005F008FB2B68DB691B689847631CF5D1FD
:102D600029680022054B4E851A7002B070BD044BD5
:102D70001B689847E8E700BF6C0C0024301F032451
:102D8000480E002440B103888B4202D843888B420E
:102D900002D280680028F6D1704700BF014B18604E
:102DA000704700BF480E0024114B1B6870B4DD69EA
:102DB000EB6943B11A88904202D35C88844205D201
:102DC0009B68002BF6D1184670BC7047821A5E686B
:102DD000AC7E06EBC2035B7813FB04F00029F3D052
:102DE00016F8323014FB03F370BC0B60704700BF61
:102DF0006C0C002401230B80704700BFC06950B1E8
:102E000003888B4202D843888B4203D28068002813
:102E1000F6D17047012070472DE9F047244F3D68F7
:102E2000002D3FDD234EC5EB4515DFF88C804FF0BC
:102E3000000A3468D8F8009004EB85050C340C3592
:102E4000A4F10803742249461846FDF7E3FE221F49
:102E50002063A06344F80CAC6263E4607C34A54258
:102E6000EED10024254603E082B13A68954213DA98
:102E70001BF06AFD336801351A5919197C349042E8
:102E8000F2D10431C8F80010BDE8F08708600431C1
:102E9000C8F80010BDE8F08719460431C8F80010E2
:102EA000BDE8F087034BDFF810801968E9E700BF41
:102EB000540E0024881D03246C0C0024F8B5184F10
:102EC000184B3846184E40F80C3F07F03DFA34686E
:102ED000C4EB4414A400204600F028FA134B224609
:102EE00000211B68386098474FF0FF3373601BF078
:102EF00035FD3368002B0FDD0024254603E062B169
:102F000033689D4208DA1BF01FFD3B6801351A59F2
:102F100023447C349042F2D1F8BD1860F8BD00BF64
:102F2000881D032455A20108540E00246C0E0024B1
:102F30002DE9F04F674D89B0934698462A680646BA
:102F4000129B0C46139D0093137C9B077FD5624B0D
:102F5000B8F1000F186807906DDDABF1040208EBC3
:102F6000040391080193C1EB817301319B0002912D
:102F70008900059103EB0B01D31803934B1F0493B6
:102F8000BBF1030F5ADD029BB046AA4605EB0309CD
:102F90001AF8017B08AB4046214603EB9713BF00AC
:102FA00013F8042C08F0EEFB08ABFFB208F10100A7
:102FB000214603EB9713BF0013F8042C08F0E2FB43
:102FC00008ABFFB208F10200214603EB9713C7F3E9
:102FD000011713F8042C08F0D5FB08AB08F1030027
:102FE00021461F4408F1040817F8042C08F0CAFB16
:102FF000D145CDD1039BC3B199F80070DDF81480A1
:10300000DDF81090B04408AB09F1FF394046214685
:1030100003EB971308F10108BF0013F8042C08F024
:10302000B1FBB9F1FF3FFFB2EDD1009B01341D446C
:10303000019BA342A4D109B0BDE8F08FBBF1000F02
:10304000F3D02F780BF1FF394FF00008DAE7D36B9C
:10305000224FD3F80090936B3A681B68914535D0A6
:103060001846029308F0D2F88246484608F0CEF897
:1030700051460522C7F808A0019007F099FB514678
:10308000DDF804A0F8600A22504607F091FB386191
:103090001348C7F814A008F07FF8029BC7F8009007
:1030A0007B60104822460E4B3146047803F10C0039
:1030B000A3F80CB01C71BDF80040A3F80E801C8270
:1030C0005D6109B0BDE8F04FFFF794BB7A689342A9
:1030D000C6D1E6E76C0C002414F10808181D03247F
:1030E000240E0024301F032409B9084670472DE937
:1030F000F0410E46054602F083FB02F081FB3046AC
:103100000FF050FE044605F085FA24B3174FFA6914
:103110007B6B013203EBC401FA6113F834200132F6
:1031200003F83420D1F8048008F10800C5B1104B31
:10313000324629461B689847D8F800107A6B0B4D29
:1031400012F83130012B03D9E86908B10138E86180
:10315000013B02F8313005F05DFA2046BDE8F08110
:10316000044B324629461B689847E5E75C1E03245A
:10317000680E00246C0E002400B9704710B5044698
:1031800002F03EFB20460FF00DFE044605F042FA29
:10319000204610BDF8B5054602F032FB25B90024E3
:1031A00005F038FA2046F8BD02F02AFB28460FF059
:1031B000F9FD044605F02EFA002CF0D0144E2A46F4
:1031C000144F0021F069736B013003EBC405F0610B
:1031D00013F83400013003F834006D683B6805F1E2
:1031E000080098472968726B12F83130012B01D919
:1031F000F06930B9013B02F8313005F00BFA204696
:10320000F8BD0138013BF06102F83130F5E700BF4D
:103210005C1E03246C0E002421F00301014B83E8A3
:1032200003007047F41A032400B9704770B50D4CC1
:10323000054602F0E5FAEE00636B334459684868CE
:103240000EF0CEFF6368626B0021606A01331644A2
:103250006360706002F835106562BDE8704005F08B
:10326000D9B900BF5C1E032428B1034AD36B0360A5
:1032700003B15860D06370475C1E0324F8B505465F
:1032800002F0BEFA2C68B4B10E4E02F0B9FAE700B3
:10329000736B3B44596848680EF0A2FF7368726B09
:1032A0000020716A013317447360796002F83400BA
:1032B000746205F0AFF900232B60BDE8F84005F01B
:1032C000A9B900BF5C1E032400292BDD2DE9F047BE
:1032D00000258A46041F144FA94602F091FA54F8BB
:1032E000046F0135B6B102F08BFA7B6B4FEAC6086A
:1032F0004344596848680EF073FF7B68796B7A6ABB
:10330000013388447B60C8F8042001F836907E625F
:1033100005F080F9C4F8009005F07CF9AA45DCD1ED
:10332000BDE8F087704700BF5C1E0324F8B58B4EE4
:10333000044696F82830002B2FD00334356CF26BFE
:1033400024F003040434A54238BF254662B152F884
:10335000043C14469D4204D114E054F8043C9D42C0
:1033600010D02468002CF8D1F368B46B1C4454F8D6
:10337000041C611A0B68002B68D14B689D426FDDFD
:10338000002408E023680BB161685960616801B1ED
:103390000B60A24256D02046F8BD714B01219A68BD
:1033A00086F8281058680AB982089A605A271022AD
:1033B00020254FF0400E3762802732644FF4807230
:1033C000B5644FF400751968C6F850E04FF4806E8C
:1033D000B7654FF4006732664FF48052B5664FF41C
:1033E0000055A1F11403C6F870E0B7674FF4804EA2
:1033F000C6F880204FF40047C6F888504FF480325A
:103400004FF400350344C6F890E04FF4802EC6F820
:1034100098704FF40027C6F8A0200222C6F8A850E2
:103420000125B1637363C6F8B0E03261F060C6F89D
:10343000B8705D60756275600EF0D2FE13F0D4FF57
:1034400035637AE723682046F363F8BD002017F060
:10345000E7FA54F8041C611A0B68002B90D18CE732
:10346000581BD6F8B8703D4A041DBB420C4472D2BA
:10347000D2F8B070BB426CD2D2F8A870BB4266D210
:10348000D2F8A070BB4260D2D2F898709F425AD94D
:10349000D2F89070BB4254D2D2F88870BB424ED260
:1034A000D2F88070BB4248D2926F934243D2376FBA
:1034B0002A4ABB423DD2976EBB4238D2176EBB42FE
:1034C00033D2976DBB422ED2176DBB4229D2976C77
:1034D000BB4224D2126C93420CD2F2687369521B25
:1034E0002B44F260736110B944F8045C53E70EF0AA
:1034F00077FEF9E700223768D1F808E0FF1ACB68B9
:103500003760BEF1000F01D0CEF8043013B1C3F81C
:1035100000E0E2E706EBC202C2F844E0DDE7012288
:10352000E9E70222E7E70322E5E70422E3E70522D1
:10353000E1E70622DFE70722DDE70822DBE70922D1
:10354000D9E70A22D7E70B22D5E70C22D3E70D22D1
:10355000D1E70E22CFE70F22CDE700BF5C1E032488
:10356000F41A0324F8B54A4C94F82830002B3DD0C7
:10357000D4F8BC30464A3BBBD2F8B43023BBD2F8B7
:10358000AC300BBBD2F8A430F3B9D2F89C30DBB925
:10359000D2F89430C3B9D2F88C30ABB9D2F88430B9
:1035A00093B9D36F83B9536F73B9E36E63B9536E35
:1035B00053B9D36D43B9536D33B9D36C23B9536C3D
:1035C00013B96FF00B00F8BD9B68002BF9D00022F7
:1035D00001E09B6843B159681046914201D90A46FF
:1035E00008469B68002BF4D10C38F8BD294B01210B
:1035F0009A6884F8281058680AB982089A605A268E
:103600001022202540272662802622644FF48072F3
:10361000A5644FF40075196827654FF48067A665A7
:103620004FF4006622664FF48052A5664FF40055B1
:10363000A1F114032767A6674FF48047C4F88020E0
:103640004FF40046C4F888504FF480324FF40035F0
:103650000344C4F890704FF48027C4F898604FF486
:103660000026C4F8A0200222C4F8A8500125A163B6
:1036700063632261E060C4F8B070C4F8B8605D6054
:10368000656265600EF0ACFD13F0AEFE25636FE77A
:103690005C1E0324F41A032430B1044B5B6B03EB70
:1036A000C000436858680C38704700BF5C1E032494
:1036B000024A936901339361704700BF5C1E032483
:1036C000084AD169536B013110B4D16103EBC004D6
:1036D00013F83020013203F8302060685DF8044BA5
:1036E000083070475C1E032409B9084670472DE96D
:1036F000F8438846064602F083F840460FF052FB36
:10370000054604F087FF002D66D0002E64D0344CAF
:10371000F700636B3B445B685B68A3F10C0080457A
:10372000A8BF804602F06CF8636BE169424613F86B
:10373000350003EBC508023103EB070C0130DFF85D
:10374000A4E003F83500D8F80480E16113F83610DE
:1037500008F10800013103F83610DCF80490DEF8B7
:10376000003009F108019847D8F80010636B13F88E
:103770003120012A03D9E06908B10138E061013A3A
:1037800003F83120D9F8001013F83120012A06D9A6
:10379000E069DFF84CE010B10138CEF81C00013AC6
:1037A00003F8312002F02CF8636B3B4459684868F9
:1037B0000EF016FD6368626B0020616A01331744E6
:1037C0006360796002F83600666204F023FF04F05B
:1037D00021FF2846BDE8F8832846BDE8F88300BFEE
:1037E0005C1E0324680E0024F8B5584C02F008F85B
:1037F00094F82830002B57D0D4F8BC30534A9BBBE8
:10380000D2F8B43083BBD2F8AC306BBBD2F8A43062
:1038100053BBD2F89C303BBBD2F8943023BBD2F8D8
:103820008C300BBBD2F88430F3B9D36FE3B9536F4C
:10383000D3B9E36EC3B9536EB3B9D36DA3B9536DA6
:1038400093B9D36C83B9536C73B96FF00B034049D0
:10385000DA1781FB0313C2EB6313246A04FB03F43E
:1038600004F0D8FE2046F8BD9B68002BF5D000225E
:1038700001E09B6843B159681046914201D90A465C
:1038800008469B68002BF4D10C38B0F5800F034636
:10389000DDD8226A2E4B02FB00F0A3FB00235C095B
:1038A00004F0B8FE2046F8BD2A4B01219A6884F83E
:1038B000281058680AB982089A605A2610222025D2
:1038C00040272662802622644FF48072A5644FF45C
:1038D0000075196827654FF48067A6654FF4006688
:1038E00022664FF48052A5664FF40055A1F11403EF
:1038F0002767A6674FF48047C4F880204FF400463E
:10390000C4F888504FF480324FF400350344C4F8B3
:1039100090704FF48027C4F898604FF40026C4F8E4
:10392000A0200222C4F8A8500125A163636322618C
:10393000E060C4F8B070C4F8B8605D60656265604E
:103940000EF04EFC13F050FD256355E75C1E03247A
:103950001F85EB51F41A0324102807D9054B5A6828
:103960005208904228BF1046986070471020014BC3
:1039700098607047F41A0324024A9369013B9361EB
:10398000704700BF5C1E032403680B4A30B4044632
:1039900053F8085C506B10F83530012B03D9D1690E
:1039A00009B10139D1610022013B00F835301046E0
:1039B000226030BC704700BF5C1E0324034B5B6B6E
:1039C00003EBC00040680830704700BF5C1E032452
:1039D000A8B32DE9F041044682B0084682BB1546E3
:1039E00002AE2046FFF76CFE0346078846F8080D36
:1039F0003046D3F80480FFF7C7FF791C40468900A2
:103A0000FFF772FE804660B3FFF75AFE034602A836
:103A100040F8043D43F82750FFF7B6FF2046FFF774
:103A20004FFE034630461A88C3F8048001320093E3
:103A30001A80FFF7A9FF002002B0BDE8F0817047AF
:103A40001146FFF751FB05460028C9D12046FFF774
:103A500037FE02AB43F8080D1846FFF795FF01202B
:103A6000EAE72846FFF7E0FB0120E5E70820FFF73B
:103A700091BB00BF00B9704730B583B00546FFF772
:103A80001FFE436800903BB96846FFF77DFF28465C
:103A9000FFF7CAFB03B030BD1846FFF711FE009BCD
:103AA00001901B885BB1002400E0019800EB8400CA
:103AB0000134FFF7E3FB009B1B88A342F5DC01A860
:103AC000FFF762FF00980430FFF7D8FB009B00224D
:103AD0001A80D9E730B583B00C46FFF7F1FD0388B3
:103AE0000090A34201D9456825B96846FFF74CFF0D
:103AF00003B030BD01F084FE2846A500FFF7E0FDCD
:103B000001902844FFF7BAFB009B1A88013A92B251
:103B1000A2421A8007DD019B121B291D9200581931
:103B20001944FDF777F801A8FFF72EFF04F072FDA6
:103B30006846FFF729FF03B030BD00BF10B582B063
:103B400018B90446204602B010BDFFF7B9FD02AB1C
:103B5000048843F8040D1846FFF716FF204602B00C
:103B600010BD00BF10B582B018B90446204602B09F
:103B700010BD0C46FFF7A4FD038800909C4206D3BD
:103B800000246846FFF700FF204602B010BD4068E1
:103B900008B90446F5E7FFF793FD02AB50F824405F
:103BA00043F8040D1846FFF7EFFEEAE710B582B0C0
:103BB00008B30C46FFF784FD038800909C4206D3AF
:103BC00000246846FFF7E0FE204602B010BD4068C2
:103BD0000028F5D0FFF774FD02AB50F8244043F8FD
:103BE000040D1846FFF7D0FE002CE9D02046FFF761
:103BF00067FD0446E5E70446204602B010BD00BF5D
:103C00002DE9F04114460646884601F0F9FD2046AC
:103C100001F078FCE8B9A7001B4D3B1905EB8303C5
:103C2000DA68B24206D11B69434503D1BDE8F041D1
:103C300004F0F0BC3B1905EB83035869D0B93C4450
:103C400005EB8404E660C4F81080BDE8F04104F0A0
:103C5000E1BC0D4B04EB840403EB840463689A68B5
:103C60005968C2EB0802711A04F0F4F8BDE8F0419B
:103C700004F0D0BC5B689A685968C2EB0802711AFC
:103C800003F088FCDBE700BFA41B0324C3B2CAB265
:103C90009A1A92B210B414B2002C1EDBC1F30722A0
:103CA000C0F307239B1A9BB21AB2002A12DB090C3D
:103CB00002FB02F2C1EB104104FB042089B20CB2FA
:103CC000002C01DA49420CB2A1B25DF8044B01FBB1
:103CD000010070475B421AB2E9E7524214B2DDE7D5
:103CE00000212DE9F041084682B001F0B3FC184FE5
:103CF00001F086FD042007F025FD164B43F6FF7604
:103D00003D461B69804634466846DA6C1B6D174495
:103D100016441D441C44ADF80070ADF80460ADF8C5
:103D20000250ADF806400DF0C9FB48B123463246BB
:103D30002946384606F0B6FF0DF052FA0028F5D1B4
:103D4000404607F0FFFC04F065FC02B0BDE8F081DE
:103D500001C0FFFF5C0C00242DE9F04182B0164643
:103D60001C4607460D4601F04BFD042007F0EAFC17
:103D7000134B804668461B69DA6C1B6D174416446A
:103D80001D441C44ADF80070ADF80460ADF802505D
:103D9000ADF806400DF092FB48B123463246294665
:103DA000384606F07FFF0DF01BFA0028F5D140469B
:103DB00007F0C8FC04F02EFC02B0BDE8F08100BFA3
:103DC0005C0C00242DE9F04182B0B0F90070B0F92C
:103DD0000260B0F90450B0F9064001F011FD042072
:103DE00007F0B0FC134B804668461B69DA6C1B6D0C
:103DF000174415441E441C44ADF80070ADF804503F
:103E0000ADF80260ADF806400DF058FB48B123460E
:103E10002A463146384606F045FF0DF0E1F9002804
:103E2000F5D1404607F08EFC04F0F4FB02B0BDE88B
:103E3000F08100BF5C0C00242DE9F047044682B0FD
:103E40000D461646002B37D09A46009651460B9BDE
:103E5000204626680A9AB047074618B9384602B085
:103E6000BDE8F0870BF042F8618A804638460AF0D8
:103E70000DFA013D38460CF085FF40460CF082FFFC
:103E8000002D1DDD4FF0000903E00CF07BFF013D2C
:103E900016D054F81C6F0023CDF800904146204600
:103EA0001A46B04706460028EFD138460AF05AFDB8
:103EB000304602B0BDE8F0870BF026F88246C4E732
:103EC00040461D210CF0D2FCBAF1FF3FC6D001F0F4
:103ED00097FC0BF09FF860B9BA4502D038460CF059
:103EE000F5FD04F097FB384602B0BDE8F0870028E6
:103EF000F4D0FFF763FD80698742F8D1F1E700BF96
:103F000080B582B000AF7860054B1B68002B03D0F2
:103F1000034B1B687868984700BF0837BD4680BDD3
:103F20001C1F0324012B17DC2DE9F04107461C2040
:103F300090460D461E46FFF7F9F90446D0B16DB123
:103F4000056100232046A661A4F81480E760236081
:103F50006360A360BDE8F08100207047074B53F811
:103F600026200AB9EDE71A461368002BFBD1136926
:103F70002361E6E70020BDE8F08100BF401F032475
:103F8000012B3BDC2DE9F84381461C2090460F466F
:103F90001E46FFF7CBF9054600287FD0414A002F87
:103FA00031D00023DFF804E152F8264003609EF888
:103FB000001007618E428661A0F81480C0F80C9052
:103FC0004360836002DB731C8EF80030002C5DD0F0
:103FD00021464C68002CFBD1D9F80000CB681B6847
:103FE00083422CDD09680029F8D148B92E4B1636DA
:103FF00028461A6842F82650BDE8F883002070472A
:104000002846BDE8F88352F82610002930D008462B
:1040100000E018460368002BFBD10069DFF88CE054
:104020002B6028619EF80000AE618642A5F81480DE
:10403000C5F80C906B60AB60CBDB0C46C3E70AD0D5
:104040004B6843B31D606B608D4214BF0B46002369
:104050004D602B60C9E7B8F1010FF1D104E0DC68D5
:10406000194623688342EBDB0B68002BF7D1E7E7A7
:10407000DFF838E001609EF8003086619E42A0F8CB
:104080001480C0F80C9041608160D6DA42F8265066
:10409000D9F80000A9E742F82650D5E70020BDE88E
:1040A000F88300BF401F03246C0C0024381F032436
:1040B000FFF7DAB800283DD070B48469012C03DD25
:1040C0000123184670BC70471F4B1A78944221DABE
:1040D0001E4D55F824300BB932E013465A68002AB9
:1040E000FBD1C268116802E01B68002BE8D0DA68D7
:1040F00012689142F8DB10D05A68F2B11060426049
:10410000984214BF1A4600225860002302601846E5
:1041100070BC7047621C1A70DAE7828A012AEBD100
:1041200004E0D668134632689142E5DC1A68002A3A
:10413000F7D1E1E701231846704745F82400DFE78F
:1041400045F82400BDE700BF381F0324401F0324A7
:1041500000284DD02DE9F041DFF89CE0254F9EF876
:104160000060BC4601E028463DB384690568012C27
:10417000F9DCB44201DB661CF6B257F824300BB907
:1041800033E013465A68002AFBD1C268116802E086
:104190001B68002BE7D0DA6812688A42F8DC10D07E
:1041A0005A68A2B110604260984214BF1A460022B9
:1041B000586002602846002DD7D18EF80060BDE817
:1041C000F081828A012A0CD05A68002AEAD147F885
:1041D0002400E9E7D2F80C801346D8F800208A4280
:1041E000DEDB1A68002AF5D1DAE74CF82400BAE7DA
:1041F000704700BF401F0324381F03240F4A816902
:1042000052F8213098420AD042680AB1036813601C
:10421000036803B15A60002303604360704703687A
:1042200042F821302BB100225A604268002AEED1B8
:10423000F0E74268002AEAD1EDE700BF401F0324FF
:1042400000207047012810DC094B53F8200068B1AA
:10425000C3681B68994204D109E0C3681B688B429C
:1042600004D000680028F8D17047002070477047DC
:10427000401F032401280EDC084B53F8200058B1DE
:10428000C3681B681BB908E0C3681B6823B10068DA
:104290000028F9D17047002070477047401F032461
:1042A000F0B5074683B00C200E461546FEF772FFA8
:1042B000044688B101F0A4FA2046FFF701FA084A43
:1042C000034602A85F6040F8043D1E815D811A60CC
:1042D000FFF75AFB04F09EF9204603B0F0BD00BF83
:1042E0004424090800B970472DE9F04182B01E4608
:1042F00015460C460746FFF7E3F902AB026843F8A0
:10430000040D1846D2F80080FFF73EFB33462A46DC
:1043100021463846C04702B0BDE8F0812DE9F84398
:1043200007461AF015FBDFF86C9007441AF010FBF3
:10433000DFF864803E1A002E22DD00F0B9FFD9F8C4
:1043400000309E42A8BF1E4601F05AFAD8F800403D
:10435000FFF7AEF9B4B1254604F05CF9013DFBD19D
:1043600030461AF0EBFA01F04BFA013CFBD1FFF7B3
:1043700003FB04F04FF91AF0EBFA3E1A002EDCDCD6
:10438000BDE8F88330461AF0D9FAFFF7F5FA04F0E1
:1043900041F9F0E7840C00248C1D032470B50D4610
:1043A0001446064601F02CFA054B30461B685D8426
:1043B0009C84FDF78FF8BDE8704004F02BB900BF76
:1043C0006C0C002438B54C1E0AD40546013C01F0A3
:1043D00017FA2846FDF77EF804F01CF9631CF5D1A6
:1043E00038BD00BF2DE9F04F4A4D83B0044601F0BF
:1043F00007FA01F09DF82B680646B3F9228001F018
:10440000EDF82B681FFA80F99A8CC9EB020212B200
:104410009A84217800294FD0B6B22F4647F6FF7113
:10442000204605F0A3FD01468346204605F05EFDCB
:1044300029688B8D03F00303012B5AD0022B5CD02B
:104440001FFA80FA4FF0000E4B8C0AF1FF3CB1F9D5
:104450002420CEEB0303ADF80220013A9BB2B01842
:104460006A460FFA83FE6344ADF806002046A1F8C1
:1044700022E05946ADF800E0ADF8043004F01AFD32
:104480002B682046BDF8022059469A8403F098FF15
:10449000235C04440A2B1BD00D2B19D0BDF800005F
:1044A0003B688244A3F822A022781AB162780134D2
:1044B000002AB3D1B3F92420998D914421F003024D
:1044C000A3F824909A8504F0A5F803B0BDE8F08F16
:1044D0002B689A8D02F00302013A012A16D8A3F83C
:1044E000228022780A2AE0D19A8C32449A84227857
:1044F000DBE71FFA80FEF246A6E7002803461FFA14
:1045000080FAB8BF431CC3F34F0E9DE71A8C5A8440
:10451000E7E700BF6C0C002470B50E461546044654
:1045200001F06EF9054B1B685E849D8414B1204632
:10453000FFF758FFBDE8704004F06CB86C0C002425
:1045400020B3F0B50C4683B00546164601F058F985
:10455000D4B120460CF006FC074638B1024621468D
:10456000684605F08BFD68460CF0FCFB32462146A0
:1045700047F6FF73284604F0FFFC38460CF0F2FBC8
:1045800004F048F803B0F0BD2746EFE7704700BFDE
:1045900030B32DE9F0410C4682B005461F46164661
:1045A00001F02EF9D4B120460CF0DCFB804638B186
:1045B00002462146684605F061FD68460CF0D2FBD4
:1045C0003B4632462146284604F0D6FC40460CF0D5
:1045D000C9FB04F01FF802B0BDE8F081A046EFE788
:1045E000704700BF08B100F001B870472DE9F04FE7
:1045F00089468BB01546044603921F4601F000F928
:10460000B9F90030B9F904100193CE1AB9F906309E
:104610000291B9F902B00136059300F089FF15F057
:104620000C0A049076D11FFA80FA48460CF09AFBE7
:1046300002460490A8B10199002506A82B4661F313
:104640000F0502996BF31F4561F30F03059906955A
:1046500061F31F434946079305F010FD06A80CF0CF
:1046600081FB039B1FFA8BF503F003080AF1FF336C
:1046700003934346B0461E4615E0022E34D01EB9C1
:10468000B9F80030ADF820302046594608AA554404
:1046900004F010FC20463A46414605F02BFF044446
:1046A000ADB2237873B33A464146204605F084FF05
:1046B000BDF80420039B8346ADF820202046EB186C
:1046C000BDF808205946ADF82250ADF82420ADF8C9
:1046D000263005F00BFC012ECFD1B9F804300133A0
:1046E000181AADF82000CFE7B9F90010B9F9043075
:1046F0005B1A181A013048BF013001EB6000ADF8B9
:104700002000C1E704980CF02DFB03F083FF0BB0F1
:10471000BDE8F08F254601F073F83A463146284649
:104720004FF0000805F0E6FE48B105443A46314630
:1047300008F10108284605F0DDFE0028F5D103F058
:1047400069FFBAF1080F08D0BAF10C0F10D0BAF116
:10475000040F02D0BDF810A067E7BDF810A0059BBC
:1047600018FB0AF85D1CC8EB05050FFA85FB5CE732
:10477000059B049ACBEB0303BDF810A0013308FBA3
:104780001238B8F1000FB8BF08F101080BEB68054B
:104790000FFA85FB49E700BF2DE9F04FDFF8F890ED
:1047A00089B0044690460F4601F02AF8D9F8003047
:1047B00006A82588DA6C1E6D013D63881744B04455
:1047C000013B7A19ADF818704344ADF81A80ADF882
:1047D0001C20ADF81E300CF071FE002851D0CB46E5
:1047E000DFF8B8A01BE040F0020003F0EDFA266904
:1047F0002EB3E0680122D4F808E0414663880392B2
:104800000292228801903846CDF800E03668B04721
:10481000284603F0D9FA0CF0E3FC002831D0E66812
:10482000002003F0D1FA054616B13379002BDAD116
:1048300025F0020003F0C8FA2669002ED9D1D9F874
:1048400000202146DAF80030527CE0689847E18881
:10485000E0B16388012622880590A0680291414654
:1048600004903846B4F804E00196CDF80CE00096C8
:1048700006F010F8284603F0A7FA0CF0B1FC002867
:10488000CDD103F0C7FE09B0BDE8F08F0129E0D11A
:10489000DBF80030986BDCE76C0C00245C0C002427
:1048A0002DE9F04F91B080461E460F46914600F02C
:1048B000A7FF674B0EA81C68E56C246D05EB080389
:1048C00005EB0902E119344402930192079108941F
:1048D000ADF83830ADF83C20ADF83A10ADF83E40B8
:1048E0000CF0ECFD002800F09780019B029A1A99C9
:1048F000C2EB030B9DF86820C1F307241B99BBF1A1
:10490000000F5B46C1F307271A99B8BF0BF10103EB
:104910000BFB02FEC1F307401B995B109DF86CC0B6
:10492000C1F307461A9903EB0E05090E0A950BFB16
:1049300004353C1B03940BFB0034301A0BFB013392
:104940005E460B950D931B9B0C94C1EB1363049077
:104950000593C2EB0C03069300F0C8FD1A9B1B9A4B
:10496000099093426AD0002E52D0029D019A95423E
:104970005CDC0AAF86464FF0010B97E8800706E043
:104980000BF1010B0135019BA646AB422FDB7046B4
:104990009AFBF6F499FBF6F197FBF6F398FBF6FC1D
:1049A0002206059C43EA0C23A24442EA0144049AED
:1049B0001C43029B9144069AAB421744039A9044CD
:1049C000E0DA7445DCD006F08BFEBBF1010FCBEBD7
:1049D0000500089B05F1FF32079922D006F062F925
:1049E0000135019B4FF0010BA646AB42CFDA2046C2
:1049F00006F076FEBBF1010F1AD0019A089BCBEBB3
:104A000002000799013006F04DF9099806F068FE9A
:104A10000CF0E6FB00289FD103F0FCFD11B0BDE8CF
:104A2000F08F1A46681E06F015F9ABE706F058FE3F
:104A3000089A0799019806F00DF9E6E7184606F07E
:104A40004FFE089B019A0799029806F02BF9DCE7C4
:104A50006C0C00242DE9F04F97B0824698468946A9
:104A60009346219D229C00F0CBFE5F4B14A81B684F
:104A70001E6DDF6C06EB0901464407EB0A0307EBEA
:104A80000B020F9109930A920296ADF85030ADF8DF
:104A90005420ADF85210ADF856600CF00FFD002810
:104AA00000F09C80EBB20F99C5F307201A460B93D8
:104AB000029B04905B1A19460C93E3B20CBF4FF0B3
:104AC000010B8B46C5F307419B1A03910D932B0EE7
:104AD0000593C4F307231193C4F307431293230EE2
:104AE0001393209B03FB03F30E9300F0FFFC0F9B3B
:104AF000029A109093426BDC1D46209B00279E1A61
:104B0000049A119BB9462E44B8469B1A039A3C4618
:104B100000970893129B9B1A059A0793139B9B1A65
:104B200006933B4641E001930E9B00FB103005F0DD
:104B300095FD209BC0EB030A019B039F01340136C6
:104B400093FBFBF299FBFBF198FBFBF03A44049FCB
:104B500039440B9F12043844079F090202F47F0274
:104B60003B44C0B2009F01F47F410193089B014385
:104B700099440D9B97FBFBF09844059B1844069BBA
:104B800042EA00601F440843009706F0A9FD0A9B13
:104B900029460135CAEB0302099B03EB0A0005F025
:104BA000FFFF029BAB42019B11DB20990C9AA142B3
:104BB000A1EB0400A2EB0402B5DC9142B246304600
:104BC00002DD002EB9D0AEE74FF0000AB5E710982D
:104BD00006F086FD0CF004FB002886D103F01AFDD8
:104BE00017B0BDE8F08F00BF6C0C00242DE9F04F2A
:104BF00091B080461E460F46914600F001FE674B7D
:104C00000EA81C68E56C246D05EB080305EB090292
:104C1000E11934440793089202910194ADF83830B9
:104C2000ADF83C20ADF83A10ADF83E400CF046FC33
:104C3000002800F09780019B029A1A99C2EB030B9F
:104C40009DF86820C1F307241B99BBF1000F5B4658
:104C5000C1F307271A99B8BF0BF101030BFB02FE42
:104C6000C1F307401B995B109DF86CC0C1F3074668
:104C70001A9903EB0E05090E0A950BFB04353C1B34
:104C800003940BFB0034301A0BFB01335E460B958B
:104C90000D931B9B0C94C1EB136304900593C2EB23
:104CA0000C03069300F022FC1A9B1B9A0990934276
:104CB00069D0002E52D0029D019A95425BDC0AAF6A
:104CC00086464FF0010B97E8800706E00BF1010BD9
:104CD0000135019BA646AB422FDB70469AFBF6F4EA
:104CE00099FBF6F197FBF6F398FBF6FC2206059C80
:104CF00043EA0C23A24442EA0144049A1C43029B67
:104D00009144069AAB421744039A9044E0DA744502
:104D1000DCD006F0E5FCBBF1010FCBEB050105F1A2
:104D2000FF33089A079822D005F0BCFF0135019B9C
:104D30004FF0010BA646AB42CFDA204606F0D0FC7E
:104D4000BBF1010F19D0019B089ACBEB0301079827
:104D5000013105F0A7FF099806F0C2FC0CF040FAFB
:104D600000289FD103F056FC11B0BDE8F08F691EFA
:104D700005F016FFACE706F0B3FC089A0199079816
:104D800005F00EFFE7E7184606F0AAFC019B089A1B
:104D90000299079805F086FFDDE700BF6C0C002440
:104DA000F0B5144F83B006460D46144600F028FDBA
:104DB0003B686846196DDA6C0E441544144433B2EE
:104DC000ADF80050ADF80440ADF80230ADF8063053
:104DD0000CF074FB50B13B682246314628465B6EAE
:104DE0001B6898470CF0FCF90028F4D103F012FC82
:104DF00003B0F0BD6C0C002470B5134E82B00546B4
:104E00000C4600F0FDFC33686846DA6C1B6D1544F7
:104E10001C442AB223B2ADF80420ADF80020ADF84E
:104E20000630ADF802300CF049FB48B1336821463A
:104E300028465B6E5B6898470CF0D2F90028F5D1E4
:104E400003F0E8FB02B070BD6C0C00242DE9F047C4
:104E500082B0044689469246984600F0D1FC1E4B2B
:104E600068461F683E7EFD6C013E3F6D2C445544F4
:104E7000B2B2B944B844A61A5119C2EB090342446C
:104E8000ADF80060ADF80410ADF80230ADF80620C2
:104E90000CF014FBD8B109F1010708F1FF362A46DE
:104EA0004946204605F07CFE2A464146204605F04C
:104EB00077FE32463946204605F0CCFE324639466A
:104EC000284605F0C7FE0CF08BF90028E7D103F067
:104ED000A1FB02B0BDE8F0876C0C00242DE9F04F77
:104EE00095B01F9C012C00F0CF8007460D4616465A
:104EF000984600F085FC684B12A81B68DA6C1B6DA5
:104F0000B918B2181D4443440C910D9208950E93A4
:104F1000ADF84810ADF84C20ADF84A50ADF84E3021
:104F20000CF0CCFA002800F0AA800C980D9B1F9D75
:104F30001B1A1E980899401B01330E9C05461F9EA4
:104F40000F93621A2B4607900846711803FB05F36E
:104F5000013209934B1E0A9210931E9B1E9A5B000E
:104F600000EB020A0B931E9B03FB03F30693A31BA8
:104F700011931F9B002B7DDD0A9B0B9A194613464C
:104F8000914277DB0F9A934274DC089B534546DAD3
:104F90000C9A1F461E9B13441E9A039316460D9BA4
:104FA0009B1A04930E9B9B1A059325E0039B39469D
:104FB000C5EB030B049B0BEB04091D44059B5846F2
:104FC00009F1FF392C1B03EB0608013E4A46013468
:104FD00005F0E6FD4A465846414605F0E1FD3946F2
:104FE0002A462046013705F0DBFD2A464146204689
:104FF00005F0D6FD57451DD0069B06FB06F8C8EB0D
:10500000030005F02BFB079B05460446B342CDDDAC
:10501000099BC8EB030005F021FB2C1AC6E70C9A8C
:105020001E9B13441E9A03930D9B9B1A04930E9B85
:105030009B1A0593039C049D2046109B2A460899C1
:1050400005F030FE119920460E9B2A46013105F0ED
:1050500029FE0C981F9A5146059C02442346013AAA
:1050600005F020FE1F990D9A2346501A5146013033
:1050700005F018FE0CF0B4F800287FF47AAF03F0C6
:10508000C9FA15B0BDE8F08F1E9C009400F006F838
:1050900015B0BDE8F08F00BF6C0C00242DE9F04F77
:1050A00091B081461E460F46904600F0A9FB5C4B2E
:1050B0000EA81C68E56C246D05EB090305EB0802DE
:1050C000E11934440B930C9206910994ADF83830F1
:1050D000ADF83C20ADF83A10ADF83E400CF0EEF9DA
:1050E000002800F098800C980B9C06991A9D031BD1
:1050F000099A0133521A29440A936D004B1C01325C
:1051000002910D931A9B079203FB03F31A9A0895D9
:1051100005931A9BE3180393831A0493079B089A39
:105120001946914273DB0A9B194691426FDB069B3D
:10513000029A93424BDC1D461A9E099B4FF0FF34A6
:105140009B1B01931AE0C4EB0904424605F028FDBD
:105150004A4601342946204605F022FD4246514682
:10516000584605F01DFD4A465146204605F018FDFB
:105170000135029B013E3C469D422CDC059B06FB13
:105180001630019B03EB060A05F068FA039B041B2B
:1051900007462946C0EB030B012C049B0BEB0408CC
:1051A00000EB0309584608F1FF38CCDC2946584685
:1051B00005F01EFD2946484605F01AFD51465846A1
:1051C00005F016FD5146484605F012FDD0E7099B53
:1051D0001A9A9B1A0193039B06995C1C049B5D1E03
:1051E000019B20462A4603F1FF3B05F0D9FC2046EF
:1051F0002A46099905F0D4FC0D9C5A460B98214685
:1052000005F028FD5A4621460C9805F023FD0BF0C9
:10521000E7FF002882D103F0FDF911B0BDE8F08F5F
:105220006C0C002470B582B0064614460D4600F0A2
:10523000E7FA104B68461A68D36C126D1E44154489
:10524000144433B2ADF80250ADF80640ADF800306A
:10525000ADF804300CF032F940B122462946304610
:1052600005F0F8FC0BF0BCFF0028F6D103F0D2F9F2
:1052700002B070BD6C0C002430B585B000232A222A
:105280000D466946019302930446039300920BF086
:10529000DDFA039B13B1012283E8240000F0B0FA89
:1052A00020460BF08BFE03F0B5F905B030BD00BF12
:1052B0002DE9F0410025124F124EDFF84C803C687A
:1052C0001CB1A047041C18BF012409F085FC3368F9
:1052D000002818BF01244BB1984738B1D8F80030E6
:1052E00013B1012498473CB10125E8E7D8F8003014
:1052F000002BF7D1002CF7D12846BDE8F08100BF84
:105300006C1F0324701F0324681F0324F0B583B0AF
:10531000074616461C460D4600F072FA104B6846CA
:105320001B68DA6C1B6D174416441D441C44ADF811
:105330000070ADF80460ADF80250ADF806400CF016
:10534000BDF848B1234632462946384605F0AAFC46
:105350000BF046FF0028F5D103F05CF903B0F0BD77
:105360006C0C0024F0B583B0B0F90070B0F90260A5
:10537000B0F90450B0F9064000F042FA104B68460C
:105380001B68DA6C1B6D174415441E441C44ADF8B1
:105390000070ADF80450ADF80260ADF806400CF0B6
:1053A0008DF848B123462A463146384605F07AFC46
:1053B0000BF016FF0028F5D103F02CF903B0F0BD77
:1053C0006C0C0024002850D0C388013B10B58488A1
:1053D00080681F2B47D8DFE803F016234631464686
:1053E000463C46464646464646404646464646466D
:1053F00046464646464646464610A31002FB031163
:1054000050F8210010BD02FB04F200EBD104C843A8
:10541000A35C00F0070023FA00F000F0010010BDCB
:1054200002FB04F200EB91046FEA4100A35C00F080
:10543000060023FA00F000F0030010BD02FB04F2A6
:1054400000EB5104CB07A05C4CBF00F00F0000093B
:1054500010BD02FB0404605C10BD631002FB03116D
:1054600030F8110010BD002010BD7047034B08211B
:1054700053F82000C3689B6A184700BF401F0324ED
:1054800010B500F0BDF905F04DFC05F0BFFE044677
:1054900003F0C0F8204610BD10B5044600F0B0F986
:1054A000054B002120461B68DB695B689847044672
:1054B00003F0B0F8204610BD6C0C002438B504464B
:1054C0000D4600F09DF9064B294620461B68DB6916
:1054D0005B689847044603F09DF8204638BD00BF3E
:1054E0006C0C002408B109F0D9BC704710B500F06D
:1054F00087F905F01FFC05F089FE044603F08AF8E1
:10550000204610BD012801D900207047014B53F8F7
:10551000200070477C1C032410B500F071F9034B88
:105520001B681C7C03F076F8204610BD6C0C002430
:1055300010B500F065F9044B1B68DB695C7E03F075
:1055400069F8204610BD00BF6C0C002410B500F0B7
:1055500057F9054B1B68DB691C7EDB7E14FB03F4EB
:1055600003F058F8204610BD6C0C002470B50446BA
:105570000E46154600F044F9204631462A4605F00D
:10558000A7FC044610B1002333602B6003F042F8FF
:10559000204670BD38B505460C4600F031F9064A84
:1055A000064BB2F90020B3F900302A602360BDE851
:1055B000384003F02FB800BF221F0324241F032408
:1055C00019F0C6B9044B3422352061219A70187045
:1055D00018461971DA707047540C002410B500F0A9
:1055E0000FF90F4B1A68938D03F00C03082B08D0AA
:1055F0000C2B06D0042B0BD0002403F00BF8204614
:1056000010BDD3691C7E03F005F86408204610BD68
:10561000D3691C7E02F0FEFF013C204610BD00BF96
:105620006C0C0024407E7047027EC07E02FB00F0BE
:10563000704700BF024B53F820301B691868704751
:10564000401F0324024B53F820301B6958687047F1
:10565000401F032438B505460C4600F0D1F8044B32
:105660001B685D849C8402F0D5FF002038BD00BF1C
:105670006C0C002490B583B000AF544A534B1B68A8
:1056800023F001031360524B1B68C3F30A0340F27B
:10569000494293420CBF01230023DAB24C4B1B68F2
:1056A000C3F30A0340F251418B420CBF0123002394
:1056B000DBB21343DBB21946454B1B68C3F30A0345
:1056C00040F2524293420CBF01230023DBB20B4352
:1056D000002B10D03F4B01221A6000BF3D4B1B68CE
:1056E000002BFBD13C4B3D4A1A603B4B1B683C4AAC
:1056F000934218D0FEE73B4B1B68C3F30A03B3F594
:105700008A6F10D1384B01221A6000BF364B1B68DC
:10571000002BFBD1354B314A1A60344B1B68304AA1
:10572000934200D0FEE703F02BFB314B2E221A7080
:1057300019F012F92F4813F003FF16F0B7FD786047
:1057400005F040FC0346002B0CBF01230023DCB214
:1057500005F07EFC0346002B0CBF01230023DBB2C7
:105760002343DBB2002B09D005F042FC044605F0D0
:1057700085FC03461946204605F0DEFF0021002087
:1057800002F078FB0AF006FAFDF746FB1A4B1B689D
:10579000002B12D00DE0184B1B681B68002B03D0A8
:1057A000154B1B681B689847134B1B685B68124AB4
:1057B0001360114B1B68002BEDD1104B01221A70A6
:1057C0007B6818460C37BD4690BD00BF002000E046
:1057D000002004E00830024000300240C2A507F477
:1057E000CDB5E8B50010005C084C0258004C0258DA
:1057F000201F0324081B0324801B0324311F0324C0
:105800002DE9F041224D6B6823B119F09DF8AB688A
:10581000984204D019F0ECF819F096F8A8606B687B
:105820000133012B6B6001D0BDE8F081194F3B685B
:10583000002B28DD0024264605E03AB301363B68FC
:105840007C349E421FDA19F07FF82B681A592344E2
:105850009042F2D17B68B342E6D0002B10DBC3EB61
:1058600043132A6802EB8308FEF7EAFC2A680A4B16
:105870001444C8F87800221DA06F1A60FEF768FC77
:105880007E60BDE8F08100242646E3E71860E1E78A
:10589000881D0324540E00246C0C002410B582B023
:1058A00028B9134B1B681C6E14B902B010BD044616
:1058B000FFF7A6FF2046FDF703FF02AB446943F85C
:1058C000080D1846FEF760F81CB902F0A3FE02B0FE
:1058D00010BD204602ACFDF7F3FE826844F8040DCB
:1058E000936898472046FEF74FF802F093FEEEE7E4
:1058F0006C0C002400B97047014A114600F002B850
:1059000001F0FFFF2DE9F047DFF8F88084B00C4686
:1059100015460646FFF774FF002002F055FAD8F846
:105920000030814630461F6EFDF7CAFE03680090C6
:10593000986902F065F9324B82469C42009B53D035
:105940001A895B89013AADF80840013BADF80A506D
:1059500022442B44ADF80C20ADF80E3008F0B2FD17
:105960006846FEF711F802A80BF0A8FD48BB5046A8
:1059700002F046F9FFF744FF002F3DD0D8F8003081
:105980001B6EB3BB08F092FF3846FDF799FE04ACDE
:10599000D8F8003044F80C0D1F660068FEF78AFB4B
:1059A0002046FDF7F1FF05F0C5FF05F08BFE02F084
:1059B00031FE484602F008FA02F02CFE04B0BDE8C1
:1059C000F0872A462146304600F0ECFE0BF008FC3A
:1059D0000028CCD02A462146304600F0E3FE0BF0EA
:1059E000FFFB0028EDD1C2E7B3F90440B3F906503C
:1059F000A6E702F0F7F8C5E702F0F4F8D7E700BF32
:105A000001F0FFFF6C0C00242DE9F04385B0064641
:105A1000904699460F46FFF7F3FE1C4A1C4B12684E
:105A2000507C53F8204001E02468FCB1E3681A6818
:105A3000042AF9D1DB6A0121204698470546D8B1EE
:105A40002469A3689847013018D00C994B460294FA
:105A50004246009130460195394600F019FD044652
:105A600002F0D8FD204605B0BDE8F083FEF702FC49
:105A7000044648B1C368DDE70446F1E70C9B054CDA
:105A800043F001030C93E0E72046ECE76C0C0024A4
:105A9000401F03247CB208082DE9F04184B00C9C1F
:105AA0009CB1984617460E460546FFF7A9FE0B9B8C
:105AB0000A9A3146029428460193434600923A4698
:105AC00000F0E6FC044602F0A5FD204604B0BDE867
:105AD000F08100BF00B9704710B582B00446FFF7EF
